{
  "abi": [
    {
      "inputs": [],
      "stateMutability": "nonpayable",
      "type": "constructor"
    },
    {
      "inputs": [],
      "name": "buyTickets",
      "outputs": [],
      "stateMutability": "payable",
      "type": "function"
    },
    {
      "inputs": [],
      "name": "currentWinningReward",
      "outputs": [
        {
          "internalType": "uint256",
          "name": "",
          "type": "uint256"
        }
      ],
      "stateMutability": "view",
      "type": "function"
    },
    {
      "inputs": [],
      "name": "drawWinnerTicket",
      "outputs": [],
      "stateMutability": "nonpayable",
      "type": "function"
    },
    {
      "inputs": [],
      "name": "duration",
      "outputs": [
        {
          "internalType": "uint256",
          "name": "",
          "type": "uint256"
        }
      ],
      "stateMutability": "view",
      "type": "function"
    },
    {
      "inputs": [],
      "name": "expiration",
      "outputs": [
        {
          "internalType": "uint256",
          "name": "",
          "type": "uint256"
        }
      ],
      "stateMutability": "view",
      "type": "function"
    },
    {
      "inputs": [],
      "name": "getTickets",
      "outputs": [
        {
          "internalType": "address[]",
          "name": "",
          "type": "address[]"
        }
      ],
      "stateMutability": "view",
      "type": "function"
    },
    {
      "inputs": [
        {
          "internalType": "address",
          "name": "addr",
          "type": "address"
        }
      ],
      "name": "getWinningsForAddress",
      "outputs": [
        {
          "internalType": "uint256",
          "name": "",
          "type": "uint256"
        }
      ],
      "stateMutability": "view",
      "type": "function"
    },
    {
      "inputs": [],
      "name": "lastWinner",
      "outputs": [
        {
          "internalType": "address",
          "name": "",
          "type": "address"
        }
      ],
      "stateMutability": "view",
      "type": "function"
    },
    {
      "inputs": [],
      "name": "lastWinnerAmount",
      "outputs": [
        {
          "internalType": "uint256",
          "name": "",
          "type": "uint256"
        }
      ],
      "stateMutability": "view",
      "type": "function"
    },
    {
      "inputs": [],
      "name": "lotteryOperator",
      "outputs": [
        {
          "internalType": "address",
          "name": "",
          "type": "address"
        }
      ],
      "stateMutability": "view",
      "type": "function"
    },
    {
      "inputs": [],
      "name": "operatorTotalCommission",
      "outputs": [
        {
          "internalType": "uint256",
          "name": "",
          "type": "uint256"
        }
      ],
      "stateMutability": "view",
      "type": "function"
    },
    {
      "inputs": [],
      "name": "restartDraw",
      "outputs": [],
      "stateMutability": "nonpayable",
      "type": "function"
    },
    {
      "inputs": [],
      "name": "senderIsWinner",
      "outputs": [
        {
          "internalType": "bool",
          "name": "",
          "type": "bool"
        }
      ],
      "stateMutability": "view",
      "type": "function"
    },
    {
      "inputs": [],
      "name": "ticketCommission",
      "outputs": [
        {
          "internalType": "uint256",
          "name": "",
          "type": "uint256"
        }
      ],
      "stateMutability": "view",
      "type": "function"
    },
    {
      "inputs": [],
      "name": "ticketPrice",
      "outputs": [
        {
          "internalType": "uint256",
          "name": "",
          "type": "uint256"
        }
      ],
      "stateMutability": "view",
      "type": "function"
    },
    {
      "inputs": [
        {
          "internalType": "uint256",
          "name": "",
          "type": "uint256"
        }
      ],
      "name": "tickets",
      "outputs": [
        {
          "internalType": "address",
          "name": "",
          "type": "address"
        }
      ],
      "stateMutability": "view",
      "type": "function"
    },
    {
      "inputs": [
        {
          "internalType": "address",
          "name": "",
          "type": "address"
        }
      ],
      "name": "winnings",
      "outputs": [
        {
          "internalType": "uint256",
          "name": "",
          "type": "uint256"
        }
      ],
      "stateMutability": "view",
      "type": "function"
    },
    {
      "inputs": [],
      "name": "withdrawCommission",
      "outputs": [],
      "stateMutability": "nonpayable",
      "type": "function"
    },
    {
      "inputs": [],
      "name": "withdrawWinnings",
      "outputs": [],
      "stateMutability": "nonpayable",
      "type": "function"
    }
  ],
  "devdoc": {
    "kind": "dev",
    "methods": {},
    "version": 1
  },
  "evm": {
    "assembly": "    /* \"LuckyTickets.sol\":58:3318  contract LuckyTickets {... */\n  mstore(0x40, 0x80)\n    /* \"LuckyTickets.sol\":357:358  0 */\n  0x00\n    /* \"LuckyTickets.sol\":316:358  uint256 public operatorTotalCommission = 0 */\n  0x02\n  sstore\n    /* \"LuckyTickets.sol\":512:620  constructor() {... */\n  callvalue\n  dup1\n  iszero\n  tag_1\n  jumpi\n  0x00\n  dup1\n  revert\ntag_1:\n  pop\n    /* \"LuckyTickets.sol\":536:551  lotteryOperator */\n  0x01\n    /* \"LuckyTickets.sol\":536:564  lotteryOperator = msg.sender */\n  dup1\n  sload\n  not(sub(shl(0xa0, 0x01), 0x01))\n  and\n    /* \"LuckyTickets.sol\":554:564  msg.sender */\n  caller\n    /* \"LuckyTickets.sol\":536:564  lotteryOperator = msg.sender */\n  or\n  swap1\n  sstore\n    /* \"LuckyTickets.sol\":587:613  block.timestamp + duration */\n  tag_4\n    /* \"LuckyTickets.sol\":235:243  24 hours */\n  0x015180\n    /* \"LuckyTickets.sol\":587:602  block.timestamp */\n  timestamp\n    /* \"LuckyTickets.sol\":587:613  block.timestamp + duration */\n  tag_5\n  jump\t// in\ntag_4:\n    /* \"LuckyTickets.sol\":574:584  expiration */\n  0x00\n    /* \"LuckyTickets.sol\":574:613  expiration = block.timestamp + duration */\n  sstore\n    /* \"LuckyTickets.sol\":58:3318  contract LuckyTickets {... */\n  jump(tag_7)\n    /* \"#utility.yul\":14:236   */\ntag_5:\n    /* \"#utility.yul\":79:88   */\n  dup1\n  dup3\n  add\n    /* \"#utility.yul\":100:110   */\n  dup1\n  dup3\n  gt\n    /* \"#utility.yul\":97:230   */\n  iszero\n  tag_9\n  jumpi\n    /* \"#utility.yul\":152:162   */\n  0x4e487b71\n    /* \"#utility.yul\":147:150   */\n  0xe0\n    /* \"#utility.yul\":143:163   */\n  shl\n    /* \"#utility.yul\":140:141   */\n  0x00\n    /* \"#utility.yul\":133:164   */\n  mstore\n    /* \"#utility.yul\":187:191   */\n  0x11\n    /* \"#utility.yul\":184:185   */\n  0x04\n    /* \"#utility.yul\":177:192   */\n  mstore\n    /* \"#utility.yul\":215:219   */\n  0x24\n    /* \"#utility.yul\":212:213   */\n  0x00\n    /* \"#utility.yul\":205:220   */\n  revert\n    /* \"#utility.yul\":97:230   */\ntag_9:\n    /* \"#utility.yul\":14:236   */\n  swap3\n  swap2\n  pop\n  pop\n  jump\t// out\ntag_7:\n    /* \"LuckyTickets.sol\":58:3318  contract LuckyTickets {... */\n  dataSize(sub_0)\n  dup1\n  dataOffset(sub_0)\n  0x00\n  codecopy\n  0x00\n  return\nstop\n\nsub_0: assembly {\n        /* \"LuckyTickets.sol\":58:3318  contract LuckyTickets {... */\n      mstore(0x40, 0x80)\n      jumpi(tag_1, lt(calldatasize, 0x04))\n      shr(0xe0, calldataload(0x00))\n      dup1\n      0x6032a4f9\n      gt\n      tag_21\n      jumpi\n      dup1\n      0xcc42e83a\n      gt\n      tag_22\n      jumpi\n      dup1\n      0xea3a1499\n      gt\n      tag_23\n      jumpi\n      dup1\n      0xea3a1499\n      eq\n      tag_18\n      jumpi\n      dup1\n      0xf2613269\n      eq\n      tag_19\n      jumpi\n      dup1\n      0xfe188184\n      eq\n      tag_20\n      jumpi\n      0x00\n      dup1\n      revert\n    tag_23:\n      dup1\n      0xcc42e83a\n      eq\n      tag_16\n      jumpi\n      dup1\n      0xdd64e534\n      eq\n      tag_17\n      jumpi\n      0x00\n      dup1\n      revert\n    tag_22:\n      dup1\n      0x6894744e\n      gt\n      tag_24\n      jumpi\n      dup1\n      0x6894744e\n      eq\n      tag_13\n      jumpi\n      dup1\n      0xba946d79\n      eq\n      tag_14\n      jumpi\n      dup1\n      0xc8199826\n      eq\n      tag_15\n      jumpi\n      0x00\n      dup1\n      revert\n    tag_24:\n      dup1\n      0x6032a4f9\n      eq\n      tag_11\n      jumpi\n      dup1\n      0x677a9e34\n      eq\n      tag_12\n      jumpi\n      0x00\n      dup1\n      revert\n    tag_21:\n      dup1\n      0x3e25e837\n      gt\n      tag_25\n      jumpi\n      dup1\n      0x4ed02622\n      gt\n      tag_26\n      jumpi\n      dup1\n      0x4ed02622\n      eq\n      tag_8\n      jumpi\n      dup1\n      0x50b44712\n      eq\n      tag_9\n      jumpi\n      dup1\n      0x5a58acdd\n      eq\n      tag_10\n      jumpi\n      0x00\n      dup1\n      revert\n    tag_26:\n      dup1\n      0x3e25e837\n      eq\n      tag_6\n      jumpi\n      dup1\n      0x4665096d\n      eq\n      tag_7\n      jumpi\n      0x00\n      dup1\n      revert\n    tag_25:\n      dup1\n      0x06f7f3bf\n      eq\n      tag_2\n      jumpi\n      dup1\n      0x0fb5a6b4\n      eq\n      tag_3\n      jumpi\n      dup1\n      0x1209b1f6\n      eq\n      tag_4\n      jumpi\n      dup1\n      0x1d8d605b\n      eq\n      tag_5\n      jumpi\n    tag_1:\n      0x00\n      dup1\n      revert\n        /* \"LuckyTickets.sol\":474:505  uint256 public lastWinnerAmount */\n    tag_2:\n      callvalue\n      dup1\n      iszero\n      tag_27\n      jumpi\n      0x00\n      dup1\n      revert\n    tag_27:\n      pop\n      tag_28\n      sload(0x06)\n      dup2\n      jump\n    tag_28:\n      mload(0x40)\n        /* \"#utility.yul\":160:185   */\n      swap1\n      dup2\n      mstore\n        /* \"#utility.yul\":148:150   */\n      0x20\n        /* \"#utility.yul\":133:151   */\n      add\n        /* \"LuckyTickets.sol\":474:505  uint256 public lastWinnerAmount */\n    tag_30:\n      mload(0x40)\n      dup1\n      swap2\n      sub\n      swap1\n      return\n        /* \"LuckyTickets.sol\":200:243  uint256 public constant duration = 24 hours */\n    tag_3:\n      callvalue\n      dup1\n      iszero\n      tag_32\n      jumpi\n      0x00\n      dup1\n      revert\n    tag_32:\n      pop\n      tag_28\n        /* \"LuckyTickets.sol\":235:243  24 hours */\n      0x015180\n        /* \"LuckyTickets.sol\":200:243  uint256 public constant duration = 24 hours */\n      dup2\n      jump\n        /* \"LuckyTickets.sol\":86:134  uint256 public constant ticketPrice = 0.01 ether */\n    tag_4:\n      callvalue\n      dup1\n      iszero\n      tag_36\n      jumpi\n      0x00\n      dup1\n      revert\n    tag_36:\n      pop\n      tag_28\n        /* \"LuckyTickets.sol\":124:134  0.01 ether */\n      0x2386f26fc10000\n        /* \"LuckyTickets.sol\":86:134  uint256 public constant ticketPrice = 0.01 ether */\n      dup2\n      jump\n        /* \"LuckyTickets.sol\":3181:3316  function currentWinningReward() public view returns (uint256) {... */\n    tag_5:\n      callvalue\n      dup1\n      iszero\n      tag_40\n      jumpi\n      0x00\n      dup1\n      revert\n    tag_40:\n      pop\n      tag_28\n      tag_42\n      jump\t// in\n        /* \"LuckyTickets.sol\":2916:3175  function withdrawCommission() public isOperator {... */\n    tag_6:\n      callvalue\n      dup1\n      iszero\n      tag_44\n      jumpi\n      0x00\n      dup1\n      revert\n    tag_44:\n      pop\n      tag_45\n      tag_46\n      jump\t// in\n    tag_45:\n      stop\n        /* \"LuckyTickets.sol\":249:274  uint256 public expiration */\n    tag_7:\n      callvalue\n      dup1\n      iszero\n      tag_47\n      jumpi\n      0x00\n      dup1\n      revert\n    tag_47:\n      pop\n      tag_28\n      sload(0x00)\n      dup2\n      jump\n        /* \"LuckyTickets.sol\":1173:1265  function getTickets() public view returns (address[] memory) {... */\n    tag_8:\n      callvalue\n      dup1\n      iszero\n      tag_51\n      jumpi\n      0x00\n      dup1\n      revert\n    tag_51:\n      pop\n      tag_52\n      tag_53\n      jump\t// in\n    tag_52:\n      mload(0x40)\n      tag_30\n      swap2\n      swap1\n      tag_55\n      jump\t// in\n        /* \"LuckyTickets.sol\":364:388  address[] public tickets */\n    tag_9:\n      callvalue\n      dup1\n      iszero\n      tag_56\n      jumpi\n      0x00\n      dup1\n      revert\n    tag_56:\n      pop\n      tag_57\n      tag_58\n      calldatasize\n      0x04\n      tag_59\n      jump\t// in\n    tag_58:\n      tag_60\n      jump\t// in\n    tag_57:\n      mload(0x40)\n      sub(shl(0xa0, 0x01), 0x01)\n        /* \"#utility.yul\":1231:1286   */\n      swap1\n      swap2\n      and\n        /* \"#utility.yul\":1213:1287   */\n      dup2\n      mstore\n        /* \"#utility.yul\":1201:1203   */\n      0x20\n        /* \"#utility.yul\":1186:1204   */\n      add\n        /* \"LuckyTickets.sol\":364:388  address[] public tickets */\n      tag_30\n        /* \"#utility.yul\":1067:1293   */\n      jump\n        /* \"LuckyTickets.sol\":280:310  address public lotteryOperator */\n    tag_10:\n      callvalue\n      dup1\n      iszero\n      tag_63\n      jumpi\n      0x00\n      dup1\n      revert\n    tag_63:\n      pop\n      sload(0x01)\n      tag_57\n      swap1\n      sub(shl(0xa0, 0x01), 0x01)\n      and\n      dup2\n      jump\n        /* \"LuckyTickets.sol\":140:194  uint256 public constant ticketCommission = 0.001 ether */\n    tag_11:\n      callvalue\n      dup1\n      iszero\n      tag_67\n      jumpi\n      0x00\n      dup1\n      revert\n    tag_67:\n      pop\n      tag_28\n        /* \"LuckyTickets.sol\":183:194  0.001 ether */\n      0x038d7ea4c68000\n        /* \"LuckyTickets.sol\":140:194  uint256 public constant ticketCommission = 0.001 ether */\n      dup2\n      jump\n        /* \"LuckyTickets.sol\":1066:1167  function senderIsWinner() public view returns (bool) {... */\n    tag_12:\n      callvalue\n      dup1\n      iszero\n      tag_71\n      jumpi\n      0x00\n      dup1\n      revert\n    tag_71:\n      pop\n        /* \"LuckyTickets.sol\":1145:1155  msg.sender */\n      caller\n        /* \"LuckyTickets.sol\":1113:1117  bool */\n      0x00\n        /* \"LuckyTickets.sol\":1136:1156  winnings[msg.sender] */\n      swap1\n      dup2\n      mstore\n        /* \"LuckyTickets.sol\":1136:1144  winnings */\n      0x04\n        /* \"LuckyTickets.sol\":1136:1156  winnings[msg.sender] */\n      0x20\n      mstore\n      0x40\n      swap1\n      keccak256\n      sload\n        /* \"LuckyTickets.sol\":1136:1160  winnings[msg.sender] > 0 */\n      iszero\n      iszero\n        /* \"LuckyTickets.sol\":1066:1167  function senderIsWinner() public view returns (bool) {... */\n      mload(0x40)\n        /* \"#utility.yul\":1463:1477   */\n      swap1\n      iszero\n        /* \"#utility.yul\":1456:1478   */\n      iszero\n        /* \"#utility.yul\":1438:1479   */\n      dup2\n      mstore\n        /* \"#utility.yul\":1426:1428   */\n      0x20\n        /* \"#utility.yul\":1411:1429   */\n      add\n        /* \"LuckyTickets.sol\":1066:1167  function senderIsWinner() public view returns (bool) {... */\n      tag_30\n        /* \"#utility.yul\":1298:1485   */\n      jump\n        /* \"LuckyTickets.sol\":1741:2463  function drawWinnerTicket() public isOperator {... */\n    tag_13:\n      callvalue\n      dup1\n      iszero\n      tag_76\n      jumpi\n      0x00\n      dup1\n      revert\n    tag_76:\n      pop\n      tag_45\n      tag_78\n      jump\t// in\n        /* \"LuckyTickets.sol\":316:358  uint256 public operatorTotalCommission = 0 */\n    tag_14:\n      callvalue\n      dup1\n      iszero\n      tag_79\n      jumpi\n      0x00\n      dup1\n      revert\n    tag_79:\n      pop\n      tag_28\n      sload(0x02)\n      dup2\n      jump\n        /* \"LuckyTickets.sol\":1390:1735  function buyTickets() public payable isNotOperator {... */\n    tag_15:\n      tag_45\n      tag_84\n      jump\t// in\n        /* \"LuckyTickets.sol\":2677:2910  function withdrawWinnings() public isWinner {... */\n    tag_16:\n      callvalue\n      dup1\n      iszero\n      tag_85\n      jumpi\n      0x00\n      dup1\n      revert\n    tag_85:\n      pop\n      tag_45\n      tag_87\n      jump\t// in\n        /* \"LuckyTickets.sol\":1271:1384  function getWinningsForAddress(address addr) public view returns (uint256) {... */\n    tag_17:\n      callvalue\n      dup1\n      iszero\n      tag_88\n      jumpi\n      0x00\n      dup1\n      revert\n    tag_88:\n      pop\n      tag_28\n      tag_90\n      calldatasize\n      0x04\n      tag_91\n      jump\t// in\n    tag_90:\n      sub(shl(0xa0, 0x01), 0x01)\n        /* \"LuckyTickets.sol\":1363:1377  winnings[addr] */\n      and\n        /* \"LuckyTickets.sol\":1337:1344  uint256 */\n      0x00\n        /* \"LuckyTickets.sol\":1363:1377  winnings[addr] */\n      swap1\n      dup2\n      mstore\n        /* \"LuckyTickets.sol\":1363:1371  winnings */\n      0x04\n        /* \"LuckyTickets.sol\":1363:1377  winnings[addr] */\n      0x20\n      mstore\n      0x40\n      swap1\n      keccak256\n      sload\n      swap1\n        /* \"LuckyTickets.sol\":1271:1384  function getWinningsForAddress(address addr) public view returns (uint256) {... */\n      jump\n        /* \"LuckyTickets.sol\":394:437  mapping(address => uint256) public winnings */\n    tag_18:\n      callvalue\n      dup1\n      iszero\n      tag_94\n      jumpi\n      0x00\n      dup1\n      revert\n    tag_94:\n      pop\n      tag_28\n      tag_96\n      calldatasize\n      0x04\n      tag_91\n      jump\t// in\n    tag_96:\n      mstore(0x20, 0x04)\n      0x00\n      swap1\n      dup2\n      mstore\n      0x40\n      swap1\n      keccak256\n      sload\n      dup2\n      jump\n        /* \"LuckyTickets.sol\":2469:2671  function restartDraw() public isOperator {... */\n    tag_19:\n      callvalue\n      dup1\n      iszero\n      tag_99\n      jumpi\n      0x00\n      dup1\n      revert\n    tag_99:\n      pop\n      tag_45\n      tag_101\n      jump\t// in\n        /* \"LuckyTickets.sol\":443:468  address public lastWinner */\n    tag_20:\n      callvalue\n      dup1\n      iszero\n      tag_102\n      jumpi\n      0x00\n      dup1\n      revert\n    tag_102:\n      pop\n      sload(0x05)\n      tag_57\n      swap1\n      sub(shl(0xa0, 0x01), 0x01)\n      and\n      dup2\n      jump\n        /* \"LuckyTickets.sol\":3181:3316  function currentWinningReward() public view returns (uint256) {... */\n    tag_42:\n        /* \"LuckyTickets.sol\":3234:3241  uint256 */\n      0x00\n        /* \"LuckyTickets.sol\":3278:3308  ticketPrice - ticketCommission */\n      tag_107\n        /* \"LuckyTickets.sol\":183:194  0.001 ether */\n      0x038d7ea4c68000\n        /* \"LuckyTickets.sol\":124:134  0.01 ether */\n      0x2386f26fc10000\n        /* \"LuckyTickets.sol\":3278:3308  ticketPrice - ticketCommission */\n      tag_108\n      jump\t// in\n    tag_107:\n        /* \"LuckyTickets.sol\":3260:3267  tickets */\n      0x03\n        /* \"LuckyTickets.sol\":3260:3274  tickets.length */\n      sload\n        /* \"LuckyTickets.sol\":3260:3309  tickets.length * (ticketPrice - ticketCommission) */\n      tag_109\n      swap2\n      swap1\n      tag_110\n      jump\t// in\n    tag_109:\n        /* \"LuckyTickets.sol\":3253:3309  return tickets.length * (ticketPrice - ticketCommission) */\n      swap1\n      pop\n        /* \"LuckyTickets.sol\":3181:3316  function currentWinningReward() public view returns (uint256) {... */\n      swap1\n      jump\t// out\n        /* \"LuckyTickets.sol\":2916:3175  function withdrawCommission() public isOperator {... */\n    tag_46:\n        /* \"LuckyTickets.sol\":694:709  lotteryOperator */\n      and(sub(shl(0xa0, 0x01), 0x01), sload(0x01))\n        /* \"LuckyTickets.sol\":680:690  msg.sender */\n      caller\n        /* \"LuckyTickets.sol\":680:709  msg.sender == lotteryOperator */\n      eq\n        /* \"LuckyTickets.sol\":658:770  require(... */\n      tag_112\n      jumpi\n      mload(0x40)\n      shl(0xe5, 0x461bcd)\n      dup2\n      mstore\n        /* \"#utility.yul\":2444:2446   */\n      0x20\n        /* \"LuckyTickets.sol\":658:770  require(... */\n      0x04\n      dup3\n      add\n        /* \"#utility.yul\":2426:2447   */\n      mstore\n        /* \"#utility.yul\":2483:2485   */\n      0x22\n        /* \"#utility.yul\":2463:2481   */\n      0x24\n      dup3\n      add\n        /* \"#utility.yul\":2456:2486   */\n      mstore\n        /* \"#utility.yul\":2522:2556   */\n      0x63616c6c6572206973206e6f7420746865206c6f7474657279206f7065726174\n        /* \"#utility.yul\":2502:2520   */\n      0x44\n      dup3\n      add\n        /* \"#utility.yul\":2495:2557   */\n      mstore\n      shl(0xf1, 0x37b9)\n        /* \"#utility.yul\":2573:2591   */\n      0x64\n      dup3\n      add\n        /* \"#utility.yul\":2566:2598   */\n      mstore\n        /* \"#utility.yul\":2615:2634   */\n      0x84\n      add\n        /* \"LuckyTickets.sol\":658:770  require(... */\n    tag_113:\n      mload(0x40)\n      dup1\n      swap2\n      sub\n      swap1\n      revert\n    tag_112:\n        /* \"LuckyTickets.sol\":3060:3083  operatorTotalCommission */\n      0x02\n      dup1\n      sload\n        /* \"LuckyTickets.sol\":2974:2998  address payable operator */\n      0x00\n        /* \"LuckyTickets.sol\":3093:3120  operatorTotalCommission = 0 */\n      swap2\n      dup3\n      swap1\n      sstore\n        /* \"LuckyTickets.sol\":3130:3168  operator.transfer(commission2Transfer) */\n      mload(0x40)\n        /* \"LuckyTickets.sol\":3009:3019  msg.sender */\n      caller\n      swap3\n      dup4\n      swap2\n        /* \"LuckyTickets.sol\":3130:3168  operator.transfer(commission2Transfer) */\n      dup4\n      iszero\n      0x08fc\n      mul\n      swap2\n        /* \"LuckyTickets.sol\":3060:3083  operatorTotalCommission */\n      dup5\n      swap2\n        /* \"LuckyTickets.sol\":3130:3168  operator.transfer(commission2Transfer) */\n      swap1\n      dup2\n        /* \"LuckyTickets.sol\":2974:2998  address payable operator */\n      dup2\n        /* \"LuckyTickets.sol\":3130:3168  operator.transfer(commission2Transfer) */\n      dup2\n        /* \"LuckyTickets.sol\":3060:3083  operatorTotalCommission */\n      dup6\n        /* \"LuckyTickets.sol\":3009:3019  msg.sender */\n      dup9\n        /* \"LuckyTickets.sol\":3130:3168  operator.transfer(commission2Transfer) */\n      dup9\n      call\n      swap4\n      pop\n      pop\n      pop\n      pop\n      iszero\n      dup1\n      iszero\n      tag_117\n      jumpi\n      returndatasize\n      0x00\n      dup1\n      returndatacopy\n      revert(0x00, returndatasize)\n    tag_117:\n      pop\n        /* \"LuckyTickets.sol\":2964:3175  {... */\n      pop\n      pop\n        /* \"LuckyTickets.sol\":2916:3175  function withdrawCommission() public isOperator {... */\n      jump\t// out\n        /* \"LuckyTickets.sol\":1173:1265  function getTickets() public view returns (address[] memory) {... */\n    tag_53:\n        /* \"LuckyTickets.sol\":1216:1232  address[] memory */\n      0x60\n        /* \"LuckyTickets.sol\":1251:1258  tickets */\n      0x03\n        /* \"LuckyTickets.sol\":1244:1258  return tickets */\n      dup1\n      sload\n      dup1\n      0x20\n      mul\n      0x20\n      add\n      mload(0x40)\n      swap1\n      dup2\n      add\n      0x40\n      mstore\n      dup1\n      swap3\n      swap2\n      swap1\n      dup2\n      dup2\n      mstore\n      0x20\n      add\n      dup3\n      dup1\n      sload\n      dup1\n      iszero\n      tag_119\n      jumpi\n      0x20\n      mul\n      dup3\n      add\n      swap2\n      swap1\n      0x00\n      mstore\n      keccak256(0x00, 0x20)\n      swap1\n    tag_120:\n      dup2\n      sload\n      sub(shl(0xa0, 0x01), 0x01)\n      and\n      dup2\n      mstore\n      0x01\n      swap1\n      swap2\n      add\n      swap1\n      0x20\n      add\n      dup1\n      dup4\n      gt\n      tag_120\n      jumpi\n    tag_119:\n      pop\n      pop\n      pop\n      pop\n      pop\n      swap1\n      pop\n        /* \"LuckyTickets.sol\":1173:1265  function getTickets() public view returns (address[] memory) {... */\n      swap1\n      jump\t// out\n        /* \"LuckyTickets.sol\":364:388  address[] public tickets */\n    tag_60:\n      0x03\n      dup2\n      dup2\n      sload\n      dup2\n      lt\n      tag_121\n      jumpi\n      0x00\n      dup1\n      revert\n    tag_121:\n      0x00\n      swap2\n      dup3\n      mstore\n      0x20\n      swap1\n      swap2\n      keccak256\n      add\n      sload\n      sub(shl(0xa0, 0x01), 0x01)\n      and\n      swap1\n      pop\n      dup2\n      jump\t// out\n        /* \"LuckyTickets.sol\":1741:2463  function drawWinnerTicket() public isOperator {... */\n    tag_78:\n        /* \"LuckyTickets.sol\":694:709  lotteryOperator */\n      and(sub(shl(0xa0, 0x01), 0x01), sload(0x01))\n        /* \"LuckyTickets.sol\":680:690  msg.sender */\n      caller\n        /* \"LuckyTickets.sol\":680:709  msg.sender == lotteryOperator */\n      eq\n        /* \"LuckyTickets.sol\":658:770  require(... */\n      tag_125\n      jumpi\n      mload(0x40)\n      shl(0xe5, 0x461bcd)\n      dup2\n      mstore\n        /* \"#utility.yul\":2444:2446   */\n      0x20\n        /* \"LuckyTickets.sol\":658:770  require(... */\n      0x04\n      dup3\n      add\n        /* \"#utility.yul\":2426:2447   */\n      mstore\n        /* \"#utility.yul\":2483:2485   */\n      0x22\n        /* \"#utility.yul\":2463:2481   */\n      0x24\n      dup3\n      add\n        /* \"#utility.yul\":2456:2486   */\n      mstore\n        /* \"#utility.yul\":2522:2556   */\n      0x63616c6c6572206973206e6f7420746865206c6f7474657279206f7065726174\n        /* \"#utility.yul\":2502:2520   */\n      0x44\n      dup3\n      add\n        /* \"#utility.yul\":2495:2557   */\n      mstore\n      shl(0xf1, 0x37b9)\n        /* \"#utility.yul\":2573:2591   */\n      0x64\n      dup3\n      add\n        /* \"#utility.yul\":2566:2598   */\n      mstore\n        /* \"#utility.yul\":2615:2634   */\n      0x84\n      add\n        /* \"LuckyTickets.sol\":658:770  require(... */\n      tag_113\n        /* \"#utility.yul\":2242:2640   */\n      jump\n        /* \"LuckyTickets.sol\":658:770  require(... */\n    tag_125:\n        /* \"LuckyTickets.sol\":1805:1812  tickets */\n      0x03\n        /* \"LuckyTickets.sol\":1805:1819  tickets.length */\n      sload\n        /* \"LuckyTickets.sol\":1797:1853  require(tickets.length > 0, \"no tickets were purchased\") */\n      tag_128\n      jumpi\n      mload(0x40)\n      shl(0xe5, 0x461bcd)\n      dup2\n      mstore\n        /* \"#utility.yul\":2847:2849   */\n      0x20\n        /* \"LuckyTickets.sol\":1797:1853  require(tickets.length > 0, \"no tickets were purchased\") */\n      0x04\n      dup3\n      add\n        /* \"#utility.yul\":2829:2850   */\n      mstore\n        /* \"#utility.yul\":2886:2888   */\n      0x19\n        /* \"#utility.yul\":2866:2884   */\n      0x24\n      dup3\n      add\n        /* \"#utility.yul\":2859:2889   */\n      mstore\n        /* \"#utility.yul\":2925:2952   */\n      0x6e6f207469636b65747320776572652070757263686173656400000000000000\n        /* \"#utility.yul\":2905:2923   */\n      0x44\n      dup3\n      add\n        /* \"#utility.yul\":2898:2953   */\n      mstore\n        /* \"#utility.yul\":2970:2988   */\n      0x64\n      add\n        /* \"LuckyTickets.sol\":1797:1853  require(tickets.length > 0, \"no tickets were purchased\") */\n      tag_113\n        /* \"#utility.yul\":2645:2994   */\n      jump\n        /* \"LuckyTickets.sol\":1797:1853  require(tickets.length > 0, \"no tickets were purchased\") */\n    tag_128:\n        /* \"LuckyTickets.sol\":1909:1916  tickets */\n      0x03\n        /* \"LuckyTickets.sol\":1909:1923  tickets.length */\n      sload\n        /* \"LuckyTickets.sol\":1864:1881  bytes32 blockHash */\n      0x00\n      swap1\n        /* \"LuckyTickets.sol\":1894:1923  block.number - tickets.length */\n      tag_131\n      swap1\n        /* \"LuckyTickets.sol\":1894:1906  block.number */\n      number\n        /* \"LuckyTickets.sol\":1894:1923  block.number - tickets.length */\n      tag_108\n      jump\t// in\n    tag_131:\n        /* \"LuckyTickets.sol\":1988:2032  abi.encodePacked(block.timestamp, blockHash) */\n      0x40\n      dup1\n      mload\n        /* \"LuckyTickets.sol\":2005:2020  block.timestamp */\n      timestamp\n        /* \"LuckyTickets.sol\":1988:2032  abi.encodePacked(block.timestamp, blockHash) */\n      0x20\n      dup3\n      add\n        /* \"#utility.yul\":3156:3175   */\n      mstore\n        /* \"LuckyTickets.sol\":1884:1924  blockhash(block.number - tickets.length) */\n      swap2\n      blockhash\n        /* \"#utility.yul\":3191:3203   */\n      swap1\n      dup3\n      add\n        /* \"#utility.yul\":3184:3212   */\n      dup2\n      swap1\n      mstore\n        /* \"LuckyTickets.sol\":1884:1924  blockhash(block.number - tickets.length) */\n      swap2\n      pop\n        /* \"LuckyTickets.sol\":1934:1954  uint256 randomNumber */\n      0x00\n      swap1\n        /* \"#utility.yul\":3228:3240   */\n      0x60\n      add\n        /* \"LuckyTickets.sol\":1988:2032  abi.encodePacked(block.timestamp, blockHash) */\n      0x40\n      dup1\n      mload\n      not(0x1f)\n      dup2\n      dup5\n      sub\n      add\n      dup2\n      mstore\n      swap2\n      swap1\n      mstore\n        /* \"LuckyTickets.sol\":1978:2033  keccak256(abi.encodePacked(block.timestamp, blockHash)) */\n      dup1\n      mload\n        /* \"LuckyTickets.sol\":1988:2032  abi.encodePacked(block.timestamp, blockHash) */\n      0x20\n        /* \"LuckyTickets.sol\":1978:2033  keccak256(abi.encodePacked(block.timestamp, blockHash)) */\n      swap1\n      swap2\n      add\n      keccak256\n        /* \"LuckyTickets.sol\":2092:2099  tickets */\n      0x03\n        /* \"LuckyTickets.sol\":2092:2106  tickets.length */\n      sload\n        /* \"LuckyTickets.sol\":1978:2033  keccak256(abi.encodePacked(block.timestamp, blockHash)) */\n      swap1\n      swap2\n      pop\n        /* \"LuckyTickets.sol\":1957:2043  uint256(... */\n      0x00\n      swap1\n        /* \"LuckyTickets.sol\":2077:2106  randomNumber % tickets.length */\n      tag_134\n      swap1\n        /* \"LuckyTickets.sol\":1978:2033  keccak256(abi.encodePacked(block.timestamp, blockHash)) */\n      dup4\n        /* \"LuckyTickets.sol\":2077:2106  randomNumber % tickets.length */\n      tag_135\n      jump\t// in\n    tag_134:\n        /* \"LuckyTickets.sol\":2053:2106  uint256 winningTicket = randomNumber % tickets.length */\n      swap1\n      pop\n        /* \"LuckyTickets.sol\":2117:2131  address winner */\n      0x00\n        /* \"LuckyTickets.sol\":2134:2141  tickets */\n      0x03\n        /* \"LuckyTickets.sol\":2142:2155  winningTicket */\n      dup3\n        /* \"LuckyTickets.sol\":2134:2156  tickets[winningTicket] */\n      dup2\n      sload\n      dup2\n      lt\n      tag_137\n      jumpi\n      tag_137\n      tag_138\n      jump\t// in\n    tag_137:\n      0x00\n      swap2\n      dup3\n      mstore\n      0x20\n      swap1\n      swap2\n      keccak256\n      add\n      sload\n        /* \"LuckyTickets.sol\":2166:2176  lastWinner */\n      0x05\n        /* \"LuckyTickets.sol\":2166:2185  lastWinner = winner */\n      dup1\n      sload\n      not(0xffffffffffffffffffffffffffffffffffffffff)\n      and\n      sub(shl(0xa0, 0x01), 0x01)\n        /* \"LuckyTickets.sol\":2134:2156  tickets[winningTicket] */\n      swap1\n      swap3\n      and\n        /* \"LuckyTickets.sol\":2166:2185  lastWinner = winner */\n      swap2\n      dup3\n      or\n      swap1\n      sstore\n        /* \"LuckyTickets.sol\":2134:2156  tickets[winningTicket] */\n      swap1\n      pop\n        /* \"LuckyTickets.sol\":2234:2264  ticketPrice - ticketCommission */\n      tag_140\n        /* \"LuckyTickets.sol\":183:194  0.001 ether */\n      0x038d7ea4c68000\n        /* \"LuckyTickets.sol\":124:134  0.01 ether */\n      0x2386f26fc10000\n        /* \"LuckyTickets.sol\":2234:2264  ticketPrice - ticketCommission */\n      tag_108\n      jump\t// in\n    tag_140:\n        /* \"LuckyTickets.sol\":2216:2223  tickets */\n      0x03\n        /* \"LuckyTickets.sol\":2216:2230  tickets.length */\n      sload\n        /* \"LuckyTickets.sol\":2216:2265  tickets.length * (ticketPrice - ticketCommission) */\n      tag_141\n      swap2\n      swap1\n      tag_110\n      jump\t// in\n    tag_141:\n      sub(shl(0xa0, 0x01), 0x01)\n        /* \"LuckyTickets.sol\":2195:2211  winnings[winner] */\n      dup3\n      and\n      0x00\n      swap1\n      dup2\n      mstore\n        /* \"LuckyTickets.sol\":2195:2203  winnings */\n      0x04\n        /* \"LuckyTickets.sol\":2195:2211  winnings[winner] */\n      0x20\n      mstore\n      0x40\n      dup2\n      keccak256\n        /* \"LuckyTickets.sol\":2195:2266  winnings[winner] += (tickets.length * (ticketPrice - ticketCommission)) */\n      dup1\n      sload\n        /* \"LuckyTickets.sol\":2195:2211  winnings[winner] */\n      swap1\n      swap2\n      swap1\n        /* \"LuckyTickets.sol\":2195:2266  winnings[winner] += (tickets.length * (ticketPrice - ticketCommission)) */\n      tag_142\n      swap1\n      dup5\n      swap1\n      tag_143\n      jump\t// in\n    tag_142:\n      swap1\n      swap2\n      sstore\n      pop\n      pop\n      sub(shl(0xa0, 0x01), 0x01)\n        /* \"LuckyTickets.sol\":2295:2311  winnings[winner] */\n      dup2\n      and\n      0x00\n      swap1\n      dup2\n      mstore\n        /* \"LuckyTickets.sol\":2295:2303  winnings */\n      0x04\n        /* \"LuckyTickets.sol\":2295:2311  winnings[winner] */\n      0x20\n      mstore\n      0x40\n      swap1\n      keccak256\n      sload\n        /* \"LuckyTickets.sol\":2276:2292  lastWinnerAmount */\n      0x06\n        /* \"LuckyTickets.sol\":2276:2311  lastWinnerAmount = winnings[winner] */\n      sstore\n        /* \"LuckyTickets.sol\":2349:2356  tickets */\n      0x03\n        /* \"LuckyTickets.sol\":2349:2363  tickets.length */\n      sload\n        /* \"LuckyTickets.sol\":2349:2382  tickets.length * ticketCommission */\n      tag_144\n      swap1\n        /* \"LuckyTickets.sol\":183:194  0.001 ether */\n      0x038d7ea4c68000\n      swap1\n        /* \"LuckyTickets.sol\":2349:2382  tickets.length * ticketCommission */\n      tag_110\n      jump\t// in\n    tag_144:\n        /* \"LuckyTickets.sol\":2321:2344  operatorTotalCommission */\n      0x02\n      0x00\n        /* \"LuckyTickets.sol\":2321:2383  operatorTotalCommission += (tickets.length * ticketCommission) */\n      dup3\n      dup3\n      sload\n      tag_145\n      swap2\n      swap1\n      tag_143\n      jump\t// in\n    tag_145:\n      swap1\n      swap2\n      sstore\n      pop\n        /* \"LuckyTickets.sol\":2393:2407  delete tickets */\n      tag_146\n      swap1\n      pop\n        /* \"LuckyTickets.sol\":2400:2407  tickets */\n      0x03\n      0x00\n        /* \"LuckyTickets.sol\":2393:2407  delete tickets */\n      tag_147\n      jump\t// in\n    tag_146:\n        /* \"LuckyTickets.sol\":2430:2456  block.timestamp + duration */\n      tag_148\n        /* \"LuckyTickets.sol\":235:243  24 hours */\n      0x015180\n        /* \"LuckyTickets.sol\":2430:2445  block.timestamp */\n      timestamp\n        /* \"LuckyTickets.sol\":2430:2456  block.timestamp + duration */\n      tag_143\n      jump\t// in\n    tag_148:\n        /* \"LuckyTickets.sol\":2417:2427  expiration */\n      0x00\n        /* \"LuckyTickets.sol\":2417:2456  expiration = block.timestamp + duration */\n      sstore\n      pop\n      pop\n      pop\n      pop\n        /* \"LuckyTickets.sol\":1741:2463  function drawWinnerTicket() public isOperator {... */\n      jump\t// out\n        /* \"LuckyTickets.sol\":1390:1735  function buyTickets() public payable isNotOperator {... */\n    tag_84:\n        /* \"LuckyTickets.sol\":865:880  lotteryOperator */\n      and(sub(shl(0xa0, 0x01), 0x01), sload(0x01))\n        /* \"LuckyTickets.sol\":851:861  msg.sender */\n      caller\n        /* \"LuckyTickets.sol\":851:880  msg.sender != lotteryOperator */\n      sub\n        /* \"LuckyTickets.sol\":829:937  require(... */\n      tag_150\n      jumpi\n      mload(0x40)\n      shl(0xe5, 0x461bcd)\n      dup2\n      mstore\n        /* \"#utility.yul\":3964:3966   */\n      0x20\n        /* \"LuckyTickets.sol\":829:937  require(... */\n      0x04\n      dup3\n      add\n        /* \"#utility.yul\":3946:3967   */\n      mstore\n        /* \"#utility.yul\":4003:4005   */\n      0x1e\n        /* \"#utility.yul\":3983:4001   */\n      0x24\n      dup3\n      add\n        /* \"#utility.yul\":3976:4006   */\n      mstore\n        /* \"#utility.yul\":4042:4074   */\n      0x63616c6c657220697320746865206c6f7474657279206f70657261746f720000\n        /* \"#utility.yul\":4022:4040   */\n      0x44\n      dup3\n      add\n        /* \"#utility.yul\":4015:4075   */\n      mstore\n        /* \"#utility.yul\":4092:4110   */\n      0x64\n      add\n        /* \"LuckyTickets.sol\":829:937  require(... */\n      tag_113\n        /* \"#utility.yul\":3762:4116   */\n      jump\n        /* \"LuckyTickets.sol\":829:937  require(... */\n    tag_150:\n        /* \"LuckyTickets.sol\":1472:1495  msg.value % ticketPrice */\n      tag_154\n        /* \"LuckyTickets.sol\":124:134  0.01 ether */\n      0x2386f26fc10000\n        /* \"LuckyTickets.sol\":1472:1481  msg.value */\n      callvalue\n        /* \"LuckyTickets.sol\":1472:1495  msg.value % ticketPrice */\n      tag_135\n      jump\t// in\n    tag_154:\n        /* \"LuckyTickets.sol\":1472:1500  msg.value % ticketPrice == 0 */\n      iszero\n        /* \"LuckyTickets.sol\":1451:1560  require(... */\n      tag_155\n      jumpi\n      mload(0x40)\n      shl(0xe5, 0x461bcd)\n      dup2\n      mstore\n        /* \"#utility.yul\":4323:4325   */\n      0x20\n        /* \"LuckyTickets.sol\":1451:1560  require(... */\n      0x04\n      dup3\n      add\n        /* \"#utility.yul\":4305:4326   */\n      mstore\n        /* \"#utility.yul\":4362:4364   */\n      0x22\n        /* \"#utility.yul\":4342:4360   */\n      0x24\n      dup3\n      add\n        /* \"#utility.yul\":4335:4365   */\n      mstore\n        /* \"#utility.yul\":4401:4435   */\n      0x7468652076616c7565206d757374206265206d756c7469706c65206f6620302e\n        /* \"#utility.yul\":4381:4399   */\n      0x44\n      dup3\n      add\n        /* \"#utility.yul\":4374:4436   */\n      mstore\n      shl(0xf0, 0x3031)\n        /* \"#utility.yul\":4452:4470   */\n      0x64\n      dup3\n      add\n        /* \"#utility.yul\":4445:4477   */\n      mstore\n        /* \"#utility.yul\":4494:4513   */\n      0x84\n      add\n        /* \"LuckyTickets.sol\":1451:1560  require(... */\n      tag_113\n        /* \"#utility.yul\":4121:4519   */\n      jump\n        /* \"LuckyTickets.sol\":1451:1560  require(... */\n    tag_155:\n        /* \"LuckyTickets.sol\":1570:1595  uint256 numOfTicketsToBuy */\n      0x00\n        /* \"LuckyTickets.sol\":1598:1621  msg.value / ticketPrice */\n      tag_158\n        /* \"LuckyTickets.sol\":124:134  0.01 ether */\n      0x2386f26fc10000\n        /* \"LuckyTickets.sol\":1598:1607  msg.value */\n      callvalue\n        /* \"LuckyTickets.sol\":1598:1621  msg.value / ticketPrice */\n      tag_159\n      jump\t// in\n    tag_158:\n        /* \"LuckyTickets.sol\":1570:1621  uint256 numOfTicketsToBuy = msg.value / ticketPrice */\n      swap1\n      pop\n        /* \"LuckyTickets.sol\":1637:1646  uint256 i */\n      0x00\n        /* \"LuckyTickets.sol\":1632:1729  for (uint256 i = 0; i < numOfTicketsToBuy; i++) {... */\n    tag_160:\n        /* \"LuckyTickets.sol\":1656:1673  numOfTicketsToBuy */\n      dup2\n        /* \"LuckyTickets.sol\":1652:1653  i */\n      dup2\n        /* \"LuckyTickets.sol\":1652:1673  i < numOfTicketsToBuy */\n      lt\n        /* \"LuckyTickets.sol\":1632:1729  for (uint256 i = 0; i < numOfTicketsToBuy; i++) {... */\n      iszero\n      tag_161\n      jumpi\n        /* \"LuckyTickets.sol\":1694:1701  tickets */\n      0x03\n        /* \"LuckyTickets.sol\":1694:1718  tickets.push(msg.sender) */\n      dup1\n      sload\n      0x01\n      dup2\n      add\n      dup3\n      sstore\n      0x00\n      swap2\n      swap1\n      swap2\n      mstore\n      0xc2575a0e9e593c00f959f8c92f12db2869c3395a3b0502d05e2516446f71f85b\n      add\n      dup1\n      sload\n      not(0xffffffffffffffffffffffffffffffffffffffff)\n      and\n        /* \"LuckyTickets.sol\":1707:1717  msg.sender */\n      caller\n        /* \"LuckyTickets.sol\":1694:1718  tickets.push(msg.sender) */\n      or\n      swap1\n      sstore\n        /* \"LuckyTickets.sol\":1675:1678  i++ */\n      dup1\n      tag_164\n      dup2\n      tag_165\n      jump\t// in\n    tag_164:\n      swap2\n      pop\n      pop\n        /* \"LuckyTickets.sol\":1632:1729  for (uint256 i = 0; i < numOfTicketsToBuy; i++) {... */\n      jump(tag_160)\n    tag_161:\n      pop\n        /* \"LuckyTickets.sol\":1441:1735  {... */\n      pop\n        /* \"LuckyTickets.sol\":1390:1735  function buyTickets() public payable isNotOperator {... */\n      jump\t// out\n        /* \"LuckyTickets.sol\":2677:2910  function withdrawWinnings() public isWinner {... */\n    tag_87:\n        /* \"LuckyTickets.sol\":1145:1155  msg.sender */\n      caller\n        /* \"LuckyTickets.sol\":1113:1117  bool */\n      0x00\n        /* \"LuckyTickets.sol\":1136:1156  winnings[msg.sender] */\n      swap1\n      dup2\n      mstore\n        /* \"LuckyTickets.sol\":1136:1144  winnings */\n      0x04\n        /* \"LuckyTickets.sol\":1136:1156  winnings[msg.sender] */\n      0x20\n      mstore\n      0x40\n      swap1\n      keccak256\n      sload\n        /* \"LuckyTickets.sol\":991:1042  require(senderIsWinner(), \"caller is not a winner\") */\n      tag_168\n      jumpi\n      mload(0x40)\n      shl(0xe5, 0x461bcd)\n      dup2\n      mstore\n        /* \"#utility.yul\":4991:4993   */\n      0x20\n        /* \"LuckyTickets.sol\":991:1042  require(senderIsWinner(), \"caller is not a winner\") */\n      0x04\n      dup3\n      add\n        /* \"#utility.yul\":4973:4994   */\n      mstore\n        /* \"#utility.yul\":5030:5032   */\n      0x16\n        /* \"#utility.yul\":5010:5028   */\n      0x24\n      dup3\n      add\n        /* \"#utility.yul\":5003:5033   */\n      mstore\n        /* \"#utility.yul\":5069:5093   */\n      0x63616c6c6572206973206e6f7420612077696e6e657200000000000000000000\n        /* \"#utility.yul\":5049:5067   */\n      0x44\n      dup3\n      add\n        /* \"#utility.yul\":5042:5094   */\n      mstore\n        /* \"#utility.yul\":5111:5129   */\n      0x64\n      add\n        /* \"LuckyTickets.sol\":991:1042  require(senderIsWinner(), \"caller is not a winner\") */\n      tag_113\n        /* \"#utility.yul\":4789:5135   */\n      jump\n        /* \"LuckyTickets.sol\":991:1042  require(senderIsWinner(), \"caller is not a winner\") */\n    tag_168:\n        /* \"LuckyTickets.sol\":2764:2774  msg.sender */\n      caller\n        /* \"LuckyTickets.sol\":2731:2753  address payable winner */\n      0x00\n        /* \"LuckyTickets.sol\":2811:2831  winnings[msg.sender] */\n      dup2\n      dup2\n      mstore\n        /* \"LuckyTickets.sol\":2811:2819  winnings */\n      0x04\n        /* \"LuckyTickets.sol\":2811:2831  winnings[msg.sender] */\n      0x20\n      mstore\n      0x40\n      dup1\n      dup3\n      keccak256\n      dup1\n      sload\n        /* \"LuckyTickets.sol\":2841:2861  winnings[winner] = 0 */\n      swap1\n      dup4\n      swap1\n      sstore\n        /* \"LuckyTickets.sol\":2871:2903  winner.transfer(reward2Transfer) */\n      swap1\n      mload\n        /* \"LuckyTickets.sol\":2811:2831  winnings[msg.sender] */\n      swap1\n      swap2\n        /* \"LuckyTickets.sol\":2764:2774  msg.sender */\n      dup4\n      swap2\n        /* \"LuckyTickets.sol\":2871:2903  winner.transfer(reward2Transfer) */\n      dup4\n      iszero\n      0x08fc\n      mul\n      swap2\n        /* \"LuckyTickets.sol\":2811:2831  winnings[msg.sender] */\n      dup5\n      swap2\n        /* \"LuckyTickets.sol\":2871:2903  winner.transfer(reward2Transfer) */\n      swap1\n      dup2\n        /* \"LuckyTickets.sol\":2731:2753  address payable winner */\n      dup2\n        /* \"LuckyTickets.sol\":2871:2903  winner.transfer(reward2Transfer) */\n      dup2\n        /* \"LuckyTickets.sol\":2811:2831  winnings[msg.sender] */\n      dup6\n        /* \"LuckyTickets.sol\":2764:2774  msg.sender */\n      dup9\n        /* \"LuckyTickets.sol\":2871:2903  winner.transfer(reward2Transfer) */\n      dup9\n      call\n      swap4\n      pop\n      pop\n      pop\n      pop\n      iszero\n      dup1\n      iszero\n      tag_117\n      jumpi\n      returndatasize\n      0x00\n      dup1\n      returndatacopy\n      revert(0x00, returndatasize)\n        /* \"LuckyTickets.sol\":2469:2671  function restartDraw() public isOperator {... */\n    tag_101:\n        /* \"LuckyTickets.sol\":694:709  lotteryOperator */\n      and(sub(shl(0xa0, 0x01), 0x01), sload(0x01))\n        /* \"LuckyTickets.sol\":680:690  msg.sender */\n      caller\n        /* \"LuckyTickets.sol\":680:709  msg.sender == lotteryOperator */\n      eq\n        /* \"LuckyTickets.sol\":658:770  require(... */\n      tag_176\n      jumpi\n      mload(0x40)\n      shl(0xe5, 0x461bcd)\n      dup2\n      mstore\n        /* \"#utility.yul\":2444:2446   */\n      0x20\n        /* \"LuckyTickets.sol\":658:770  require(... */\n      0x04\n      dup3\n      add\n        /* \"#utility.yul\":2426:2447   */\n      mstore\n        /* \"#utility.yul\":2483:2485   */\n      0x22\n        /* \"#utility.yul\":2463:2481   */\n      0x24\n      dup3\n      add\n        /* \"#utility.yul\":2456:2486   */\n      mstore\n        /* \"#utility.yul\":2522:2556   */\n      0x63616c6c6572206973206e6f7420746865206c6f7474657279206f7065726174\n        /* \"#utility.yul\":2502:2520   */\n      0x44\n      dup3\n      add\n        /* \"#utility.yul\":2495:2557   */\n      mstore\n      shl(0xf1, 0x37b9)\n        /* \"#utility.yul\":2573:2591   */\n      0x64\n      dup3\n      add\n        /* \"#utility.yul\":2566:2598   */\n      mstore\n        /* \"#utility.yul\":2615:2634   */\n      0x84\n      add\n        /* \"LuckyTickets.sol\":658:770  require(... */\n      tag_113\n        /* \"#utility.yul\":2242:2640   */\n      jump\n        /* \"LuckyTickets.sol\":658:770  require(... */\n    tag_176:\n        /* \"LuckyTickets.sol\":2528:2535  tickets */\n      0x03\n        /* \"LuckyTickets.sol\":2528:2542  tickets.length */\n      sload\n        /* \"LuckyTickets.sol\":2528:2547  tickets.length == 0 */\n      iszero\n        /* \"LuckyTickets.sol\":2520:2590  require(tickets.length == 0, \"cannot Restart Draw as Draw is in play\") */\n      tag_179\n      jumpi\n      mload(0x40)\n      shl(0xe5, 0x461bcd)\n      dup2\n      mstore\n        /* \"#utility.yul\":5342:5344   */\n      0x20\n        /* \"LuckyTickets.sol\":2520:2590  require(tickets.length == 0, \"cannot Restart Draw as Draw is in play\") */\n      0x04\n      dup3\n      add\n        /* \"#utility.yul\":5324:5345   */\n      mstore\n        /* \"#utility.yul\":5381:5383   */\n      0x26\n        /* \"#utility.yul\":5361:5379   */\n      0x24\n      dup3\n      add\n        /* \"#utility.yul\":5354:5384   */\n      mstore\n        /* \"#utility.yul\":5420:5454   */\n      0x63616e6e6f742052657374617274204472617720617320447261772069732069\n        /* \"#utility.yul\":5400:5418   */\n      0x44\n      dup3\n      add\n        /* \"#utility.yul\":5393:5455   */\n      mstore\n        /* \"#utility.yul\":5491:5499   */\n      0x6e20706c61790000000000000000000000000000000000000000000000000000\n        /* \"#utility.yul\":5471:5489   */\n      0x64\n      dup3\n      add\n        /* \"#utility.yul\":5464:5500   */\n      mstore\n        /* \"#utility.yul\":5517:5536   */\n      0x84\n      add\n        /* \"LuckyTickets.sol\":2520:2590  require(tickets.length == 0, \"cannot Restart Draw as Draw is in play\") */\n      tag_113\n        /* \"#utility.yul\":5140:5542   */\n      jump\n        /* \"LuckyTickets.sol\":2520:2590  require(tickets.length == 0, \"cannot Restart Draw as Draw is in play\") */\n    tag_179:\n        /* \"LuckyTickets.sol\":2601:2615  delete tickets */\n      tag_182\n        /* \"LuckyTickets.sol\":2608:2615  tickets */\n      0x03\n      0x00\n        /* \"LuckyTickets.sol\":2601:2615  delete tickets */\n      tag_147\n      jump\t// in\n    tag_182:\n        /* \"LuckyTickets.sol\":2638:2664  block.timestamp + duration */\n      tag_183\n        /* \"LuckyTickets.sol\":235:243  24 hours */\n      0x015180\n        /* \"LuckyTickets.sol\":2638:2653  block.timestamp */\n      timestamp\n        /* \"LuckyTickets.sol\":2638:2664  block.timestamp + duration */\n      tag_143\n      jump\t// in\n    tag_183:\n        /* \"LuckyTickets.sol\":2625:2635  expiration */\n      0x00\n        /* \"LuckyTickets.sol\":2625:2664  expiration = block.timestamp + duration */\n      sstore\n        /* \"LuckyTickets.sol\":2469:2671  function restartDraw() public isOperator {... */\n      jump\t// out\n    tag_147:\n      pop\n      dup1\n      sload\n      0x00\n      dup3\n      sstore\n      swap1\n      0x00\n      mstore\n      keccak256(0x00, 0x20)\n      swap1\n      dup2\n      add\n      swap1\n      tag_185\n      swap2\n      swap1\n      tag_186\n      jump\t// in\n    tag_185:\n      pop\n      jump\t// out\n    tag_186:\n    tag_187:\n      dup1\n      dup3\n      gt\n      iszero\n      tag_188\n      jumpi\n      0x00\n      dup2\n      sstore\n      0x01\n      add\n      jump(tag_187)\n    tag_188:\n      pop\n      swap1\n      jump\t// out\n        /* \"#utility.yul\":196:877   */\n    tag_55:\n        /* \"#utility.yul\":367:369   */\n      0x20\n        /* \"#utility.yul\":419:440   */\n      dup1\n      dup3\n      mstore\n        /* \"#utility.yul\":489:502   */\n      dup3\n      mload\n        /* \"#utility.yul\":392:410   */\n      dup3\n      dup3\n      add\n        /* \"#utility.yul\":511:533   */\n      dup2\n      swap1\n      mstore\n        /* \"#utility.yul\":338:342   */\n      0x00\n      swap2\n        /* \"#utility.yul\":367:369   */\n      swap1\n        /* \"#utility.yul\":590:605   */\n      dup5\n      dup3\n      add\n      swap1\n        /* \"#utility.yul\":564:566   */\n      0x40\n        /* \"#utility.yul\":549:567   */\n      dup6\n      add\n      swap1\n        /* \"#utility.yul\":338:342   */\n      dup5\n        /* \"#utility.yul\":633:851   */\n    tag_194:\n        /* \"#utility.yul\":647:653   */\n      dup2\n        /* \"#utility.yul\":644:645   */\n      dup2\n        /* \"#utility.yul\":641:654   */\n      lt\n        /* \"#utility.yul\":633:851   */\n      iszero\n      tag_196\n      jumpi\n        /* \"#utility.yul\":712:725   */\n      dup4\n      mload\n      sub(shl(0xa0, 0x01), 0x01)\n        /* \"#utility.yul\":708:770   */\n      and\n        /* \"#utility.yul\":696:771   */\n      dup4\n      mstore\n        /* \"#utility.yul\":826:841   */\n      swap3\n      dup5\n      add\n      swap3\n        /* \"#utility.yul\":791:803   */\n      swap2\n      dup5\n      add\n      swap2\n        /* \"#utility.yul\":669:670   */\n      0x01\n        /* \"#utility.yul\":662:671   */\n      add\n        /* \"#utility.yul\":633:851   */\n      jump(tag_194)\n    tag_196:\n      pop\n        /* \"#utility.yul\":868:871   */\n      swap1\n      swap7\n        /* \"#utility.yul\":196:877   */\n      swap6\n      pop\n      pop\n      pop\n      pop\n      pop\n      pop\n      jump\t// out\n        /* \"#utility.yul\":882:1062   */\n    tag_59:\n        /* \"#utility.yul\":941:947   */\n      0x00\n        /* \"#utility.yul\":994:996   */\n      0x20\n        /* \"#utility.yul\":982:991   */\n      dup3\n        /* \"#utility.yul\":973:980   */\n      dup5\n        /* \"#utility.yul\":969:992   */\n      sub\n        /* \"#utility.yul\":965:997   */\n      slt\n        /* \"#utility.yul\":962:1014   */\n      iszero\n      tag_198\n      jumpi\n        /* \"#utility.yul\":1010:1011   */\n      0x00\n        /* \"#utility.yul\":1007:1008   */\n      dup1\n        /* \"#utility.yul\":1000:1012   */\n      revert\n        /* \"#utility.yul\":962:1014   */\n    tag_198:\n      pop\n        /* \"#utility.yul\":1033:1056   */\n      calldataload\n      swap2\n        /* \"#utility.yul\":882:1062   */\n      swap1\n      pop\n      jump\t// out\n        /* \"#utility.yul\":1490:1799   */\n    tag_91:\n        /* \"#utility.yul\":1549:1555   */\n      0x00\n        /* \"#utility.yul\":1602:1604   */\n      0x20\n        /* \"#utility.yul\":1590:1599   */\n      dup3\n        /* \"#utility.yul\":1581:1588   */\n      dup5\n        /* \"#utility.yul\":1577:1600   */\n      sub\n        /* \"#utility.yul\":1573:1605   */\n      slt\n        /* \"#utility.yul\":1570:1622   */\n      iszero\n      tag_202\n      jumpi\n        /* \"#utility.yul\":1618:1619   */\n      0x00\n        /* \"#utility.yul\":1615:1616   */\n      dup1\n        /* \"#utility.yul\":1608:1620   */\n      revert\n        /* \"#utility.yul\":1570:1622   */\n    tag_202:\n        /* \"#utility.yul\":1657:1666   */\n      dup2\n        /* \"#utility.yul\":1644:1667   */\n      calldataload\n      sub(shl(0xa0, 0x01), 0x01)\n        /* \"#utility.yul\":1700:1705   */\n      dup2\n        /* \"#utility.yul\":1696:1750   */\n      and\n        /* \"#utility.yul\":1689:1694   */\n      dup2\n        /* \"#utility.yul\":1686:1751   */\n      eq\n        /* \"#utility.yul\":1676:1769   */\n      tag_203\n      jumpi\n        /* \"#utility.yul\":1765:1766   */\n      0x00\n        /* \"#utility.yul\":1762:1763   */\n      dup1\n        /* \"#utility.yul\":1755:1767   */\n      revert\n        /* \"#utility.yul\":1676:1769   */\n    tag_203:\n        /* \"#utility.yul\":1788:1793   */\n      swap4\n        /* \"#utility.yul\":1490:1799   */\n      swap3\n      pop\n      pop\n      pop\n      jump\t// out\n        /* \"#utility.yul\":1804:1931   */\n    tag_189:\n        /* \"#utility.yul\":1865:1875   */\n      0x4e487b71\n        /* \"#utility.yul\":1860:1863   */\n      0xe0\n        /* \"#utility.yul\":1856:1876   */\n      shl\n        /* \"#utility.yul\":1853:1854   */\n      0x00\n        /* \"#utility.yul\":1846:1877   */\n      mstore\n        /* \"#utility.yul\":1896:1900   */\n      0x11\n        /* \"#utility.yul\":1893:1894   */\n      0x04\n        /* \"#utility.yul\":1886:1901   */\n      mstore\n        /* \"#utility.yul\":1920:1924   */\n      0x24\n        /* \"#utility.yul\":1917:1918   */\n      0x00\n        /* \"#utility.yul\":1910:1925   */\n      revert\n        /* \"#utility.yul\":1936:2064   */\n    tag_108:\n        /* \"#utility.yul\":2003:2012   */\n      dup2\n      dup2\n      sub\n        /* \"#utility.yul\":2024:2035   */\n      dup2\n      dup2\n      gt\n        /* \"#utility.yul\":2021:2058   */\n      iszero\n      tag_207\n      jumpi\n        /* \"#utility.yul\":2038:2056   */\n      tag_207\n      tag_189\n      jump\t// in\n    tag_207:\n        /* \"#utility.yul\":1936:2064   */\n      swap3\n      swap2\n      pop\n      pop\n      jump\t// out\n        /* \"#utility.yul\":2069:2237   */\n    tag_110:\n        /* \"#utility.yul\":2142:2151   */\n      dup1\n      dup3\n      mul\n        /* \"#utility.yul\":2173:2182   */\n      dup2\n      iszero\n        /* \"#utility.yul\":2190:2205   */\n      dup3\n      dup3\n      div\n        /* \"#utility.yul\":2184:2206   */\n      dup5\n      eq\n        /* \"#utility.yul\":2170:2207   */\n      or\n        /* \"#utility.yul\":2160:2231   */\n      tag_207\n      jumpi\n        /* \"#utility.yul\":2211:2229   */\n      tag_207\n      tag_189\n      jump\t// in\n        /* \"#utility.yul\":3251:3378   */\n    tag_190:\n        /* \"#utility.yul\":3312:3322   */\n      0x4e487b71\n        /* \"#utility.yul\":3307:3310   */\n      0xe0\n        /* \"#utility.yul\":3303:3323   */\n      shl\n        /* \"#utility.yul\":3300:3301   */\n      0x00\n        /* \"#utility.yul\":3293:3324   */\n      mstore\n        /* \"#utility.yul\":3343:3347   */\n      0x12\n        /* \"#utility.yul\":3340:3341   */\n      0x04\n        /* \"#utility.yul\":3333:3348   */\n      mstore\n        /* \"#utility.yul\":3367:3371   */\n      0x24\n        /* \"#utility.yul\":3364:3365   */\n      0x00\n        /* \"#utility.yul\":3357:3372   */\n      revert\n        /* \"#utility.yul\":3383:3495   */\n    tag_135:\n        /* \"#utility.yul\":3415:3416   */\n      0x00\n        /* \"#utility.yul\":3441:3442   */\n      dup3\n        /* \"#utility.yul\":3431:3466   */\n      tag_217\n      jumpi\n        /* \"#utility.yul\":3446:3464   */\n      tag_217\n      tag_190\n      jump\t// in\n    tag_217:\n      pop\n        /* \"#utility.yul\":3480:3489   */\n      mod\n      swap1\n        /* \"#utility.yul\":3383:3495   */\n      jump\t// out\n        /* \"#utility.yul\":3500:3627   */\n    tag_138:\n        /* \"#utility.yul\":3561:3571   */\n      0x4e487b71\n        /* \"#utility.yul\":3556:3559   */\n      0xe0\n        /* \"#utility.yul\":3552:3572   */\n      shl\n        /* \"#utility.yul\":3549:3550   */\n      0x00\n        /* \"#utility.yul\":3542:3573   */\n      mstore\n        /* \"#utility.yul\":3592:3596   */\n      0x32\n        /* \"#utility.yul\":3589:3590   */\n      0x04\n        /* \"#utility.yul\":3582:3597   */\n      mstore\n        /* \"#utility.yul\":3616:3620   */\n      0x24\n        /* \"#utility.yul\":3613:3614   */\n      0x00\n        /* \"#utility.yul\":3606:3621   */\n      revert\n        /* \"#utility.yul\":3632:3757   */\n    tag_143:\n        /* \"#utility.yul\":3697:3706   */\n      dup1\n      dup3\n      add\n        /* \"#utility.yul\":3718:3728   */\n      dup1\n      dup3\n      gt\n        /* \"#utility.yul\":3715:3751   */\n      iszero\n      tag_207\n      jumpi\n        /* \"#utility.yul\":3731:3749   */\n      tag_207\n      tag_189\n      jump\t// in\n        /* \"#utility.yul\":4524:4644   */\n    tag_159:\n        /* \"#utility.yul\":4564:4565   */\n      0x00\n        /* \"#utility.yul\":4590:4591   */\n      dup3\n        /* \"#utility.yul\":4580:4615   */\n      tag_226\n      jumpi\n        /* \"#utility.yul\":4595:4613   */\n      tag_226\n      tag_190\n      jump\t// in\n    tag_226:\n      pop\n        /* \"#utility.yul\":4629:4638   */\n      div\n      swap1\n        /* \"#utility.yul\":4524:4644   */\n      jump\t// out\n        /* \"#utility.yul\":4649:4784   */\n    tag_165:\n        /* \"#utility.yul\":4688:4691   */\n      0x00\n        /* \"#utility.yul\":4709:4726   */\n      0x01\n      dup3\n      add\n        /* \"#utility.yul\":4706:4749   */\n      tag_229\n      jumpi\n        /* \"#utility.yul\":4729:4747   */\n      tag_229\n      tag_189\n      jump\t// in\n    tag_229:\n      pop\n        /* \"#utility.yul\":4776:4777   */\n      0x01\n        /* \"#utility.yul\":4765:4778   */\n      add\n      swap1\n        /* \"#utility.yul\":4649:4784   */\n      jump\t// out\n\n    auxdata: 0xa2646970667358221220c946ae55a25ea827d10bed177376a63e47c756bbbade4ec0478a7d3559c1da5964736f6c63430008110033\n}\n",
    "bytecode": {
      "linkReferences": {},
      "object": "6080604052600060025534801561001557600080fd5b50600180546001600160a01b03191633179055610035620151804261003d565b600055610064565b8082018082111561005e57634e487b7160e01b600052601160045260246000fd5b92915050565b610baa806100736000396000f3fe6080604052600436106101445760003560e01c80636032a4f9116100c0578063cc42e83a11610074578063ea3a149911610059578063ea3a149914610328578063f261326914610355578063fe1881841461036a57600080fd5b8063cc42e83a146102dd578063dd64e534146102f257600080fd5b80636894744e116100a55780636894744e146102aa578063ba946d79146102bf578063c8199826146102d557600080fd5b80636032a4f914610260578063677a9e341461027b57600080fd5b80633e25e837116101175780634ed02622116100fc5780634ed02622146101e657806350b44712146102085780635a58acdd1461024057600080fd5b80633e25e837146101b95780634665096d146101d057600080fd5b806306f7f3bf146101495780630fb5a6b4146101725780631209b1f6146101895780631d8d605b146101a4575b600080fd5b34801561015557600080fd5b5061015f60065481565b6040519081526020015b60405180910390f35b34801561017e57600080fd5b5061015f6201518081565b34801561019557600080fd5b5061015f662386f26fc1000081565b3480156101b057600080fd5b5061015f61038a565b3480156101c557600080fd5b506101ce6103b6565b005b3480156101dc57600080fd5b5061015f60005481565b3480156101f257600080fd5b506101fb61045d565b6040516101699190610a18565b34801561021457600080fd5b50610228610223366004610a65565b6104bf565b6040516001600160a01b039091168152602001610169565b34801561024c57600080fd5b50600154610228906001600160a01b031681565b34801561026c57600080fd5b5061015f66038d7ea4c6800081565b34801561028757600080fd5b503360009081526004602052604090205415156040519015158152602001610169565b3480156102b657600080fd5b506101ce6104e9565b3480156102cb57600080fd5b5061015f60025481565b6101ce6106fe565b3480156102e957600080fd5b506101ce610846565b3480156102fe57600080fd5b5061015f61030d366004610a7e565b6001600160a01b031660009081526004602052604090205490565b34801561033457600080fd5b5061015f610343366004610a7e565b60046020526000908152604090205481565b34801561036157600080fd5b506101ce6108e5565b34801561037657600080fd5b50600554610228906001600160a01b031681565b60006103a466038d7ea4c68000662386f26fc10000610ac4565b6003546103b19190610add565b905090565b6001546001600160a01b031633146104205760405162461bcd60e51b815260206004820152602260248201527f63616c6c6572206973206e6f7420746865206c6f7474657279206f706572617460448201526137b960f11b60648201526084015b60405180910390fd5b600280546000918290556040513392839183156108fc0291849190818181858888f19350505050158015610458573d6000803e3d6000fd5b505050565b606060038054806020026020016040519081016040528092919081815260200182805480156104b557602002820191906000526020600020905b81546001600160a01b03168152600190910190602001808311610497575b5050505050905090565b600381815481106104cf57600080fd5b6000918252602090912001546001600160a01b0316905081565b6001546001600160a01b0316331461054e5760405162461bcd60e51b815260206004820152602260248201527f63616c6c6572206973206e6f7420746865206c6f7474657279206f706572617460448201526137b960f11b6064820152608401610417565b60035461059d5760405162461bcd60e51b815260206004820152601960248201527f6e6f207469636b657473207765726520707572636861736564000000000000006044820152606401610417565b6003546000906105ad9043610ac4565b604080514260208201529140908201819052915060009060600160408051601f1981840301815291905280516020909101206003549091506000906105f29083610b0a565b905060006003828154811061060957610609610b1e565b6000918252602090912001546005805473ffffffffffffffffffffffffffffffffffffffff19166001600160a01b039092169182179055905061065a66038d7ea4c68000662386f26fc10000610ac4565b6003546106679190610add565b6001600160a01b0382166000908152600460205260408120805490919061068f908490610b34565b90915550506001600160a01b0381166000908152600460205260409020546006556003546106c59066038d7ea4c6800090610add565b600260008282546106d69190610b34565b909155506106e89050600360006109de565b6106f56201518042610b34565b60005550505050565b6001546001600160a01b031633036107585760405162461bcd60e51b815260206004820152601e60248201527f63616c6c657220697320746865206c6f7474657279206f70657261746f7200006044820152606401610417565b610769662386f26fc1000034610b0a565b156107c15760405162461bcd60e51b815260206004820152602260248201527f7468652076616c7565206d757374206265206d756c7469706c65206f6620302e604482015261303160f01b6064820152608401610417565b60006107d4662386f26fc1000034610b47565b905060005b8181101561084257600380546001810182556000919091527fc2575a0e9e593c00f959f8c92f12db2869c3395a3b0502d05e2516446f71f85b01805473ffffffffffffffffffffffffffffffffffffffff1916331790558061083a81610b5b565b9150506107d9565b5050565b336000908152600460205260409020546108a25760405162461bcd60e51b815260206004820152601660248201527f63616c6c6572206973206e6f7420612077696e6e6572000000000000000000006044820152606401610417565b3360008181526004602052604080822080549083905590519091839183156108fc0291849190818181858888f19350505050158015610458573d6000803e3d6000fd5b6001546001600160a01b0316331461094a5760405162461bcd60e51b815260206004820152602260248201527f63616c6c6572206973206e6f7420746865206c6f7474657279206f706572617460448201526137b960f11b6064820152608401610417565b600354156109c05760405162461bcd60e51b815260206004820152602660248201527f63616e6e6f74205265737461727420447261772061732044726177206973206960448201527f6e20706c617900000000000000000000000000000000000000000000000000006064820152608401610417565b6109cc600360006109de565b6109d96201518042610b34565b600055565b50805460008255906000526020600020908101906109fc91906109ff565b50565b5b80821115610a145760008155600101610a00565b5090565b6020808252825182820181905260009190848201906040850190845b81811015610a595783516001600160a01b031683529284019291840191600101610a34565b50909695505050505050565b600060208284031215610a7757600080fd5b5035919050565b600060208284031215610a9057600080fd5b81356001600160a01b0381168114610aa757600080fd5b9392505050565b634e487b7160e01b600052601160045260246000fd5b81810381811115610ad757610ad7610aae565b92915050565b8082028115828204841417610ad757610ad7610aae565b634e487b7160e01b600052601260045260246000fd5b600082610b1957610b19610af4565b500690565b634e487b7160e01b600052603260045260246000fd5b80820180821115610ad757610ad7610aae565b600082610b5657610b56610af4565b500490565b600060018201610b6d57610b6d610aae565b506001019056fea2646970667358221220c946ae55a25ea827d10bed177376a63e47c756bbbade4ec0478a7d3559c1da5964736f6c63430008110033",
      "opcodes": "PUSH1 0x80 PUSH1 0x40 MSTORE PUSH1 0x0 PUSH1 0x2 SSTORE CALLVALUE DUP1 ISZERO PUSH2 0x15 JUMPI PUSH1 0x0 DUP1 REVERT JUMPDEST POP PUSH1 0x1 DUP1 SLOAD PUSH1 0x1 PUSH1 0x1 PUSH1 0xA0 SHL SUB NOT AND CALLER OR SWAP1 SSTORE PUSH2 0x35 PUSH3 0x15180 TIMESTAMP PUSH2 0x3D JUMP JUMPDEST PUSH1 0x0 SSTORE PUSH2 0x64 JUMP JUMPDEST DUP1 DUP3 ADD DUP1 DUP3 GT ISZERO PUSH2 0x5E JUMPI PUSH4 0x4E487B71 PUSH1 0xE0 SHL PUSH1 0x0 MSTORE PUSH1 0x11 PUSH1 0x4 MSTORE PUSH1 0x24 PUSH1 0x0 REVERT JUMPDEST SWAP3 SWAP2 POP POP JUMP JUMPDEST PUSH2 0xBAA DUP1 PUSH2 0x73 PUSH1 0x0 CODECOPY PUSH1 0x0 RETURN INVALID PUSH1 0x80 PUSH1 0x40 MSTORE PUSH1 0x4 CALLDATASIZE LT PUSH2 0x144 JUMPI PUSH1 0x0 CALLDATALOAD PUSH1 0xE0 SHR DUP1 PUSH4 0x6032A4F9 GT PUSH2 0xC0 JUMPI DUP1 PUSH4 0xCC42E83A GT PUSH2 0x74 JUMPI DUP1 PUSH4 0xEA3A1499 GT PUSH2 0x59 JUMPI DUP1 PUSH4 0xEA3A1499 EQ PUSH2 0x328 JUMPI DUP1 PUSH4 0xF2613269 EQ PUSH2 0x355 JUMPI DUP1 PUSH4 0xFE188184 EQ PUSH2 0x36A JUMPI PUSH1 0x0 DUP1 REVERT JUMPDEST DUP1 PUSH4 0xCC42E83A EQ PUSH2 0x2DD JUMPI DUP1 PUSH4 0xDD64E534 EQ PUSH2 0x2F2 JUMPI PUSH1 0x0 DUP1 REVERT JUMPDEST DUP1 PUSH4 0x6894744E GT PUSH2 0xA5 JUMPI DUP1 PUSH4 0x6894744E EQ PUSH2 0x2AA JUMPI DUP1 PUSH4 0xBA946D79 EQ PUSH2 0x2BF JUMPI DUP1 PUSH4 0xC8199826 EQ PUSH2 0x2D5 JUMPI PUSH1 0x0 DUP1 REVERT JUMPDEST DUP1 PUSH4 0x6032A4F9 EQ PUSH2 0x260 JUMPI DUP1 PUSH4 0x677A9E34 EQ PUSH2 0x27B JUMPI PUSH1 0x0 DUP1 REVERT JUMPDEST DUP1 PUSH4 0x3E25E837 GT PUSH2 0x117 JUMPI DUP1 PUSH4 0x4ED02622 GT PUSH2 0xFC JUMPI DUP1 PUSH4 0x4ED02622 EQ PUSH2 0x1E6 JUMPI DUP1 PUSH4 0x50B44712 EQ PUSH2 0x208 JUMPI DUP1 PUSH4 0x5A58ACDD EQ PUSH2 0x240 JUMPI PUSH1 0x0 DUP1 REVERT JUMPDEST DUP1 PUSH4 0x3E25E837 EQ PUSH2 0x1B9 JUMPI DUP1 PUSH4 0x4665096D EQ PUSH2 0x1D0 JUMPI PUSH1 0x0 DUP1 REVERT JUMPDEST DUP1 PUSH4 0x6F7F3BF EQ PUSH2 0x149 JUMPI DUP1 PUSH4 0xFB5A6B4 EQ PUSH2 0x172 JUMPI DUP1 PUSH4 0x1209B1F6 EQ PUSH2 0x189 JUMPI DUP1 PUSH4 0x1D8D605B EQ PUSH2 0x1A4 JUMPI JUMPDEST PUSH1 0x0 DUP1 REVERT JUMPDEST CALLVALUE DUP1 ISZERO PUSH2 0x155 JUMPI PUSH1 0x0 DUP1 REVERT JUMPDEST POP PUSH2 0x15F PUSH1 0x6 SLOAD DUP2 JUMP JUMPDEST PUSH1 0x40 MLOAD SWAP1 DUP2 MSTORE PUSH1 0x20 ADD JUMPDEST PUSH1 0x40 MLOAD DUP1 SWAP2 SUB SWAP1 RETURN JUMPDEST CALLVALUE DUP1 ISZERO PUSH2 0x17E JUMPI PUSH1 0x0 DUP1 REVERT JUMPDEST POP PUSH2 0x15F PUSH3 0x15180 DUP2 JUMP JUMPDEST CALLVALUE DUP1 ISZERO PUSH2 0x195 JUMPI PUSH1 0x0 DUP1 REVERT JUMPDEST POP PUSH2 0x15F PUSH7 0x2386F26FC10000 DUP2 JUMP JUMPDEST CALLVALUE DUP1 ISZERO PUSH2 0x1B0 JUMPI PUSH1 0x0 DUP1 REVERT JUMPDEST POP PUSH2 0x15F PUSH2 0x38A JUMP JUMPDEST CALLVALUE DUP1 ISZERO PUSH2 0x1C5 JUMPI PUSH1 0x0 DUP1 REVERT JUMPDEST POP PUSH2 0x1CE PUSH2 0x3B6 JUMP JUMPDEST STOP JUMPDEST CALLVALUE DUP1 ISZERO PUSH2 0x1DC JUMPI PUSH1 0x0 DUP1 REVERT JUMPDEST POP PUSH2 0x15F PUSH1 0x0 SLOAD DUP2 JUMP JUMPDEST CALLVALUE DUP1 ISZERO PUSH2 0x1F2 JUMPI PUSH1 0x0 DUP1 REVERT JUMPDEST POP PUSH2 0x1FB PUSH2 0x45D JUMP JUMPDEST PUSH1 0x40 MLOAD PUSH2 0x169 SWAP2 SWAP1 PUSH2 0xA18 JUMP JUMPDEST CALLVALUE DUP1 ISZERO PUSH2 0x214 JUMPI PUSH1 0x0 DUP1 REVERT JUMPDEST POP PUSH2 0x228 PUSH2 0x223 CALLDATASIZE PUSH1 0x4 PUSH2 0xA65 JUMP JUMPDEST PUSH2 0x4BF JUMP JUMPDEST PUSH1 0x40 MLOAD PUSH1 0x1 PUSH1 0x1 PUSH1 0xA0 SHL SUB SWAP1 SWAP2 AND DUP2 MSTORE PUSH1 0x20 ADD PUSH2 0x169 JUMP JUMPDEST CALLVALUE DUP1 ISZERO PUSH2 0x24C JUMPI PUSH1 0x0 DUP1 REVERT JUMPDEST POP PUSH1 0x1 SLOAD PUSH2 0x228 SWAP1 PUSH1 0x1 PUSH1 0x1 PUSH1 0xA0 SHL SUB AND DUP2 JUMP JUMPDEST CALLVALUE DUP1 ISZERO PUSH2 0x26C JUMPI PUSH1 0x0 DUP1 REVERT JUMPDEST POP PUSH2 0x15F PUSH7 0x38D7EA4C68000 DUP2 JUMP JUMPDEST CALLVALUE DUP1 ISZERO PUSH2 0x287 JUMPI PUSH1 0x0 DUP1 REVERT JUMPDEST POP CALLER PUSH1 0x0 SWAP1 DUP2 MSTORE PUSH1 0x4 PUSH1 0x20 MSTORE PUSH1 0x40 SWAP1 KECCAK256 SLOAD ISZERO ISZERO PUSH1 0x40 MLOAD SWAP1 ISZERO ISZERO DUP2 MSTORE PUSH1 0x20 ADD PUSH2 0x169 JUMP JUMPDEST CALLVALUE DUP1 ISZERO PUSH2 0x2B6 JUMPI PUSH1 0x0 DUP1 REVERT JUMPDEST POP PUSH2 0x1CE PUSH2 0x4E9 JUMP JUMPDEST CALLVALUE DUP1 ISZERO PUSH2 0x2CB JUMPI PUSH1 0x0 DUP1 REVERT JUMPDEST POP PUSH2 0x15F PUSH1 0x2 SLOAD DUP2 JUMP JUMPDEST PUSH2 0x1CE PUSH2 0x6FE JUMP JUMPDEST CALLVALUE DUP1 ISZERO PUSH2 0x2E9 JUMPI PUSH1 0x0 DUP1 REVERT JUMPDEST POP PUSH2 0x1CE PUSH2 0x846 JUMP JUMPDEST CALLVALUE DUP1 ISZERO PUSH2 0x2FE JUMPI PUSH1 0x0 DUP1 REVERT JUMPDEST POP PUSH2 0x15F PUSH2 0x30D CALLDATASIZE PUSH1 0x4 PUSH2 0xA7E JUMP JUMPDEST PUSH1 0x1 PUSH1 0x1 PUSH1 0xA0 SHL SUB AND PUSH1 0x0 SWAP1 DUP2 MSTORE PUSH1 0x4 PUSH1 0x20 MSTORE PUSH1 0x40 SWAP1 KECCAK256 SLOAD SWAP1 JUMP JUMPDEST CALLVALUE DUP1 ISZERO PUSH2 0x334 JUMPI PUSH1 0x0 DUP1 REVERT JUMPDEST POP PUSH2 0x15F PUSH2 0x343 CALLDATASIZE PUSH1 0x4 PUSH2 0xA7E JUMP JUMPDEST PUSH1 0x4 PUSH1 0x20 MSTORE PUSH1 0x0 SWAP1 DUP2 MSTORE PUSH1 0x40 SWAP1 KECCAK256 SLOAD DUP2 JUMP JUMPDEST CALLVALUE DUP1 ISZERO PUSH2 0x361 JUMPI PUSH1 0x0 DUP1 REVERT JUMPDEST POP PUSH2 0x1CE PUSH2 0x8E5 JUMP JUMPDEST CALLVALUE DUP1 ISZERO PUSH2 0x376 JUMPI PUSH1 0x0 DUP1 REVERT JUMPDEST POP PUSH1 0x5 SLOAD PUSH2 0x228 SWAP1 PUSH1 0x1 PUSH1 0x1 PUSH1 0xA0 SHL SUB AND DUP2 JUMP JUMPDEST PUSH1 0x0 PUSH2 0x3A4 PUSH7 0x38D7EA4C68000 PUSH7 0x2386F26FC10000 PUSH2 0xAC4 JUMP JUMPDEST PUSH1 0x3 SLOAD PUSH2 0x3B1 SWAP2 SWAP1 PUSH2 0xADD JUMP JUMPDEST SWAP1 POP SWAP1 JUMP JUMPDEST PUSH1 0x1 SLOAD PUSH1 0x1 PUSH1 0x1 PUSH1 0xA0 SHL SUB AND CALLER EQ PUSH2 0x420 JUMPI PUSH1 0x40 MLOAD PUSH3 0x461BCD PUSH1 0xE5 SHL DUP2 MSTORE PUSH1 0x20 PUSH1 0x4 DUP3 ADD MSTORE PUSH1 0x22 PUSH1 0x24 DUP3 ADD MSTORE PUSH32 0x63616C6C6572206973206E6F7420746865206C6F7474657279206F7065726174 PUSH1 0x44 DUP3 ADD MSTORE PUSH2 0x37B9 PUSH1 0xF1 SHL PUSH1 0x64 DUP3 ADD MSTORE PUSH1 0x84 ADD JUMPDEST PUSH1 0x40 MLOAD DUP1 SWAP2 SUB SWAP1 REVERT JUMPDEST PUSH1 0x2 DUP1 SLOAD PUSH1 0x0 SWAP2 DUP3 SWAP1 SSTORE PUSH1 0x40 MLOAD CALLER SWAP3 DUP4 SWAP2 DUP4 ISZERO PUSH2 0x8FC MUL SWAP2 DUP5 SWAP2 SWAP1 DUP2 DUP2 DUP2 DUP6 DUP9 DUP9 CALL SWAP4 POP POP POP POP ISZERO DUP1 ISZERO PUSH2 0x458 JUMPI RETURNDATASIZE PUSH1 0x0 DUP1 RETURNDATACOPY RETURNDATASIZE PUSH1 0x0 REVERT JUMPDEST POP POP POP JUMP JUMPDEST PUSH1 0x60 PUSH1 0x3 DUP1 SLOAD DUP1 PUSH1 0x20 MUL PUSH1 0x20 ADD PUSH1 0x40 MLOAD SWAP1 DUP2 ADD PUSH1 0x40 MSTORE DUP1 SWAP3 SWAP2 SWAP1 DUP2 DUP2 MSTORE PUSH1 0x20 ADD DUP3 DUP1 SLOAD DUP1 ISZERO PUSH2 0x4B5 JUMPI PUSH1 0x20 MUL DUP3 ADD SWAP2 SWAP1 PUSH1 0x0 MSTORE PUSH1 0x20 PUSH1 0x0 KECCAK256 SWAP1 JUMPDEST DUP2 SLOAD PUSH1 0x1 PUSH1 0x1 PUSH1 0xA0 SHL SUB AND DUP2 MSTORE PUSH1 0x1 SWAP1 SWAP2 ADD SWAP1 PUSH1 0x20 ADD DUP1 DUP4 GT PUSH2 0x497 JUMPI JUMPDEST POP POP POP POP POP SWAP1 POP SWAP1 JUMP JUMPDEST PUSH1 0x3 DUP2 DUP2 SLOAD DUP2 LT PUSH2 0x4CF JUMPI PUSH1 0x0 DUP1 REVERT JUMPDEST PUSH1 0x0 SWAP2 DUP3 MSTORE PUSH1 0x20 SWAP1 SWAP2 KECCAK256 ADD SLOAD PUSH1 0x1 PUSH1 0x1 PUSH1 0xA0 SHL SUB AND SWAP1 POP DUP2 JUMP JUMPDEST PUSH1 0x1 SLOAD PUSH1 0x1 PUSH1 0x1 PUSH1 0xA0 SHL SUB AND CALLER EQ PUSH2 0x54E JUMPI PUSH1 0x40 MLOAD PUSH3 0x461BCD PUSH1 0xE5 SHL DUP2 MSTORE PUSH1 0x20 PUSH1 0x4 DUP3 ADD MSTORE PUSH1 0x22 PUSH1 0x24 DUP3 ADD MSTORE PUSH32 0x63616C6C6572206973206E6F7420746865206C6F7474657279206F7065726174 PUSH1 0x44 DUP3 ADD MSTORE PUSH2 0x37B9 PUSH1 0xF1 SHL PUSH1 0x64 DUP3 ADD MSTORE PUSH1 0x84 ADD PUSH2 0x417 JUMP JUMPDEST PUSH1 0x3 SLOAD PUSH2 0x59D JUMPI PUSH1 0x40 MLOAD PUSH3 0x461BCD PUSH1 0xE5 SHL DUP2 MSTORE PUSH1 0x20 PUSH1 0x4 DUP3 ADD MSTORE PUSH1 0x19 PUSH1 0x24 DUP3 ADD MSTORE PUSH32 0x6E6F207469636B65747320776572652070757263686173656400000000000000 PUSH1 0x44 DUP3 ADD MSTORE PUSH1 0x64 ADD PUSH2 0x417 JUMP JUMPDEST PUSH1 0x3 SLOAD PUSH1 0x0 SWAP1 PUSH2 0x5AD SWAP1 NUMBER PUSH2 0xAC4 JUMP JUMPDEST PUSH1 0x40 DUP1 MLOAD TIMESTAMP PUSH1 0x20 DUP3 ADD MSTORE SWAP2 BLOCKHASH SWAP1 DUP3 ADD DUP2 SWAP1 MSTORE SWAP2 POP PUSH1 0x0 SWAP1 PUSH1 0x60 ADD PUSH1 0x40 DUP1 MLOAD PUSH1 0x1F NOT DUP2 DUP5 SUB ADD DUP2 MSTORE SWAP2 SWAP1 MSTORE DUP1 MLOAD PUSH1 0x20 SWAP1 SWAP2 ADD KECCAK256 PUSH1 0x3 SLOAD SWAP1 SWAP2 POP PUSH1 0x0 SWAP1 PUSH2 0x5F2 SWAP1 DUP4 PUSH2 0xB0A JUMP JUMPDEST SWAP1 POP PUSH1 0x0 PUSH1 0x3 DUP3 DUP2 SLOAD DUP2 LT PUSH2 0x609 JUMPI PUSH2 0x609 PUSH2 0xB1E JUMP JUMPDEST PUSH1 0x0 SWAP2 DUP3 MSTORE PUSH1 0x20 SWAP1 SWAP2 KECCAK256 ADD SLOAD PUSH1 0x5 DUP1 SLOAD PUSH20 0xFFFFFFFFFFFFFFFFFFFFFFFFFFFFFFFFFFFFFFFF NOT AND PUSH1 0x1 PUSH1 0x1 PUSH1 0xA0 SHL SUB SWAP1 SWAP3 AND SWAP2 DUP3 OR SWAP1 SSTORE SWAP1 POP PUSH2 0x65A PUSH7 0x38D7EA4C68000 PUSH7 0x2386F26FC10000 PUSH2 0xAC4 JUMP JUMPDEST PUSH1 0x3 SLOAD PUSH2 0x667 SWAP2 SWAP1 PUSH2 0xADD JUMP JUMPDEST PUSH1 0x1 PUSH1 0x1 PUSH1 0xA0 SHL SUB DUP3 AND PUSH1 0x0 SWAP1 DUP2 MSTORE PUSH1 0x4 PUSH1 0x20 MSTORE PUSH1 0x40 DUP2 KECCAK256 DUP1 SLOAD SWAP1 SWAP2 SWAP1 PUSH2 0x68F SWAP1 DUP5 SWAP1 PUSH2 0xB34 JUMP JUMPDEST SWAP1 SWAP2 SSTORE POP POP PUSH1 0x1 PUSH1 0x1 PUSH1 0xA0 SHL SUB DUP2 AND PUSH1 0x0 SWAP1 DUP2 MSTORE PUSH1 0x4 PUSH1 0x20 MSTORE PUSH1 0x40 SWAP1 KECCAK256 SLOAD PUSH1 0x6 SSTORE PUSH1 0x3 SLOAD PUSH2 0x6C5 SWAP1 PUSH7 0x38D7EA4C68000 SWAP1 PUSH2 0xADD JUMP JUMPDEST PUSH1 0x2 PUSH1 0x0 DUP3 DUP3 SLOAD PUSH2 0x6D6 SWAP2 SWAP1 PUSH2 0xB34 JUMP JUMPDEST SWAP1 SWAP2 SSTORE POP PUSH2 0x6E8 SWAP1 POP PUSH1 0x3 PUSH1 0x0 PUSH2 0x9DE JUMP JUMPDEST PUSH2 0x6F5 PUSH3 0x15180 TIMESTAMP PUSH2 0xB34 JUMP JUMPDEST PUSH1 0x0 SSTORE POP POP POP POP JUMP JUMPDEST PUSH1 0x1 SLOAD PUSH1 0x1 PUSH1 0x1 PUSH1 0xA0 SHL SUB AND CALLER SUB PUSH2 0x758 JUMPI PUSH1 0x40 MLOAD PUSH3 0x461BCD PUSH1 0xE5 SHL DUP2 MSTORE PUSH1 0x20 PUSH1 0x4 DUP3 ADD MSTORE PUSH1 0x1E PUSH1 0x24 DUP3 ADD MSTORE PUSH32 0x63616C6C657220697320746865206C6F7474657279206F70657261746F720000 PUSH1 0x44 DUP3 ADD MSTORE PUSH1 0x64 ADD PUSH2 0x417 JUMP JUMPDEST PUSH2 0x769 PUSH7 0x2386F26FC10000 CALLVALUE PUSH2 0xB0A JUMP JUMPDEST ISZERO PUSH2 0x7C1 JUMPI PUSH1 0x40 MLOAD PUSH3 0x461BCD PUSH1 0xE5 SHL DUP2 MSTORE PUSH1 0x20 PUSH1 0x4 DUP3 ADD MSTORE PUSH1 0x22 PUSH1 0x24 DUP3 ADD MSTORE PUSH32 0x7468652076616C7565206D757374206265206D756C7469706C65206F6620302E PUSH1 0x44 DUP3 ADD MSTORE PUSH2 0x3031 PUSH1 0xF0 SHL PUSH1 0x64 DUP3 ADD MSTORE PUSH1 0x84 ADD PUSH2 0x417 JUMP JUMPDEST PUSH1 0x0 PUSH2 0x7D4 PUSH7 0x2386F26FC10000 CALLVALUE PUSH2 0xB47 JUMP JUMPDEST SWAP1 POP PUSH1 0x0 JUMPDEST DUP2 DUP2 LT ISZERO PUSH2 0x842 JUMPI PUSH1 0x3 DUP1 SLOAD PUSH1 0x1 DUP2 ADD DUP3 SSTORE PUSH1 0x0 SWAP2 SWAP1 SWAP2 MSTORE PUSH32 0xC2575A0E9E593C00F959F8C92F12DB2869C3395A3B0502D05E2516446F71F85B ADD DUP1 SLOAD PUSH20 0xFFFFFFFFFFFFFFFFFFFFFFFFFFFFFFFFFFFFFFFF NOT AND CALLER OR SWAP1 SSTORE DUP1 PUSH2 0x83A DUP2 PUSH2 0xB5B JUMP JUMPDEST SWAP2 POP POP PUSH2 0x7D9 JUMP JUMPDEST POP POP JUMP JUMPDEST CALLER PUSH1 0x0 SWAP1 DUP2 MSTORE PUSH1 0x4 PUSH1 0x20 MSTORE PUSH1 0x40 SWAP1 KECCAK256 SLOAD PUSH2 0x8A2 JUMPI PUSH1 0x40 MLOAD PUSH3 0x461BCD PUSH1 0xE5 SHL DUP2 MSTORE PUSH1 0x20 PUSH1 0x4 DUP3 ADD MSTORE PUSH1 0x16 PUSH1 0x24 DUP3 ADD MSTORE PUSH32 0x63616C6C6572206973206E6F7420612077696E6E657200000000000000000000 PUSH1 0x44 DUP3 ADD MSTORE PUSH1 0x64 ADD PUSH2 0x417 JUMP JUMPDEST CALLER PUSH1 0x0 DUP2 DUP2 MSTORE PUSH1 0x4 PUSH1 0x20 MSTORE PUSH1 0x40 DUP1 DUP3 KECCAK256 DUP1 SLOAD SWAP1 DUP4 SWAP1 SSTORE SWAP1 MLOAD SWAP1 SWAP2 DUP4 SWAP2 DUP4 ISZERO PUSH2 0x8FC MUL SWAP2 DUP5 SWAP2 SWAP1 DUP2 DUP2 DUP2 DUP6 DUP9 DUP9 CALL SWAP4 POP POP POP POP ISZERO DUP1 ISZERO PUSH2 0x458 JUMPI RETURNDATASIZE PUSH1 0x0 DUP1 RETURNDATACOPY RETURNDATASIZE PUSH1 0x0 REVERT JUMPDEST PUSH1 0x1 SLOAD PUSH1 0x1 PUSH1 0x1 PUSH1 0xA0 SHL SUB AND CALLER EQ PUSH2 0x94A JUMPI PUSH1 0x40 MLOAD PUSH3 0x461BCD PUSH1 0xE5 SHL DUP2 MSTORE PUSH1 0x20 PUSH1 0x4 DUP3 ADD MSTORE PUSH1 0x22 PUSH1 0x24 DUP3 ADD MSTORE PUSH32 0x63616C6C6572206973206E6F7420746865206C6F7474657279206F7065726174 PUSH1 0x44 DUP3 ADD MSTORE PUSH2 0x37B9 PUSH1 0xF1 SHL PUSH1 0x64 DUP3 ADD MSTORE PUSH1 0x84 ADD PUSH2 0x417 JUMP JUMPDEST PUSH1 0x3 SLOAD ISZERO PUSH2 0x9C0 JUMPI PUSH1 0x40 MLOAD PUSH3 0x461BCD PUSH1 0xE5 SHL DUP2 MSTORE PUSH1 0x20 PUSH1 0x4 DUP3 ADD MSTORE PUSH1 0x26 PUSH1 0x24 DUP3 ADD MSTORE PUSH32 0x63616E6E6F742052657374617274204472617720617320447261772069732069 PUSH1 0x44 DUP3 ADD MSTORE PUSH32 0x6E20706C61790000000000000000000000000000000000000000000000000000 PUSH1 0x64 DUP3 ADD MSTORE PUSH1 0x84 ADD PUSH2 0x417 JUMP JUMPDEST PUSH2 0x9CC PUSH1 0x3 PUSH1 0x0 PUSH2 0x9DE JUMP JUMPDEST PUSH2 0x9D9 PUSH3 0x15180 TIMESTAMP PUSH2 0xB34 JUMP JUMPDEST PUSH1 0x0 SSTORE JUMP JUMPDEST POP DUP1 SLOAD PUSH1 0x0 DUP3 SSTORE SWAP1 PUSH1 0x0 MSTORE PUSH1 0x20 PUSH1 0x0 KECCAK256 SWAP1 DUP2 ADD SWAP1 PUSH2 0x9FC SWAP2 SWAP1 PUSH2 0x9FF JUMP JUMPDEST POP JUMP JUMPDEST JUMPDEST DUP1 DUP3 GT ISZERO PUSH2 0xA14 JUMPI PUSH1 0x0 DUP2 SSTORE PUSH1 0x1 ADD PUSH2 0xA00 JUMP JUMPDEST POP SWAP1 JUMP JUMPDEST PUSH1 0x20 DUP1 DUP3 MSTORE DUP3 MLOAD DUP3 DUP3 ADD DUP2 SWAP1 MSTORE PUSH1 0x0 SWAP2 SWAP1 DUP5 DUP3 ADD SWAP1 PUSH1 0x40 DUP6 ADD SWAP1 DUP5 JUMPDEST DUP2 DUP2 LT ISZERO PUSH2 0xA59 JUMPI DUP4 MLOAD PUSH1 0x1 PUSH1 0x1 PUSH1 0xA0 SHL SUB AND DUP4 MSTORE SWAP3 DUP5 ADD SWAP3 SWAP2 DUP5 ADD SWAP2 PUSH1 0x1 ADD PUSH2 0xA34 JUMP JUMPDEST POP SWAP1 SWAP7 SWAP6 POP POP POP POP POP POP JUMP JUMPDEST PUSH1 0x0 PUSH1 0x20 DUP3 DUP5 SUB SLT ISZERO PUSH2 0xA77 JUMPI PUSH1 0x0 DUP1 REVERT JUMPDEST POP CALLDATALOAD SWAP2 SWAP1 POP JUMP JUMPDEST PUSH1 0x0 PUSH1 0x20 DUP3 DUP5 SUB SLT ISZERO PUSH2 0xA90 JUMPI PUSH1 0x0 DUP1 REVERT JUMPDEST DUP2 CALLDATALOAD PUSH1 0x1 PUSH1 0x1 PUSH1 0xA0 SHL SUB DUP2 AND DUP2 EQ PUSH2 0xAA7 JUMPI PUSH1 0x0 DUP1 REVERT JUMPDEST SWAP4 SWAP3 POP POP POP JUMP JUMPDEST PUSH4 0x4E487B71 PUSH1 0xE0 SHL PUSH1 0x0 MSTORE PUSH1 0x11 PUSH1 0x4 MSTORE PUSH1 0x24 PUSH1 0x0 REVERT JUMPDEST DUP2 DUP2 SUB DUP2 DUP2 GT ISZERO PUSH2 0xAD7 JUMPI PUSH2 0xAD7 PUSH2 0xAAE JUMP JUMPDEST SWAP3 SWAP2 POP POP JUMP JUMPDEST DUP1 DUP3 MUL DUP2 ISZERO DUP3 DUP3 DIV DUP5 EQ OR PUSH2 0xAD7 JUMPI PUSH2 0xAD7 PUSH2 0xAAE JUMP JUMPDEST PUSH4 0x4E487B71 PUSH1 0xE0 SHL PUSH1 0x0 MSTORE PUSH1 0x12 PUSH1 0x4 MSTORE PUSH1 0x24 PUSH1 0x0 REVERT JUMPDEST PUSH1 0x0 DUP3 PUSH2 0xB19 JUMPI PUSH2 0xB19 PUSH2 0xAF4 JUMP JUMPDEST POP MOD SWAP1 JUMP JUMPDEST PUSH4 0x4E487B71 PUSH1 0xE0 SHL PUSH1 0x0 MSTORE PUSH1 0x32 PUSH1 0x4 MSTORE PUSH1 0x24 PUSH1 0x0 REVERT JUMPDEST DUP1 DUP3 ADD DUP1 DUP3 GT ISZERO PUSH2 0xAD7 JUMPI PUSH2 0xAD7 PUSH2 0xAAE JUMP JUMPDEST PUSH1 0x0 DUP3 PUSH2 0xB56 JUMPI PUSH2 0xB56 PUSH2 0xAF4 JUMP JUMPDEST POP DIV SWAP1 JUMP JUMPDEST PUSH1 0x0 PUSH1 0x1 DUP3 ADD PUSH2 0xB6D JUMPI PUSH2 0xB6D PUSH2 0xAAE JUMP JUMPDEST POP PUSH1 0x1 ADD SWAP1 JUMP INVALID LOG2 PUSH5 0x6970667358 0x22 SLT KECCAK256 0xC9 CHAINID 0xAE SSTORE LOG2 0x5E 0xA8 0x27 0xD1 SIGNEXTEND 0xED OR PUSH20 0x76A63E47C756BBBADE4EC0478A7D3559C1DA5964 PUSH20 0x6F6C634300081100330000000000000000000000 "
    },
    "gasEstimates": {
      "creation": {
        "codeDepositCost": "597200",
        "executionCost": "52062",
        "totalCost": "649262"
      },
      "external": {
        "buyTickets()": "infinite",
        "currentWinningReward()": "infinite",
        "drawWinnerTicket()": "infinite",
        "duration()": "230",
        "expiration()": "2352",
        "getTickets()": "infinite",
        "getWinningsForAddress(address)": "2558",
        "lastWinner()": "2425",
        "lastWinnerAmount()": "2308",
        "lotteryOperator()": "2426",
        "operatorTotalCommission()": "2351",
        "restartDraw()": "infinite",
        "senderIsWinner()": "2428",
        "ticketCommission()": "230",
        "ticketPrice()": "252",
        "tickets(uint256)": "4681",
        "winnings(address)": "2517",
        "withdrawCommission()": "infinite",
        "withdrawWinnings()": "infinite"
      }
    },
    "methodIdentifiers": {
      "buyTickets()": "c8199826",
      "currentWinningReward()": "1d8d605b",
      "drawWinnerTicket()": "6894744e",
      "duration()": "0fb5a6b4",
      "expiration()": "4665096d",
      "getTickets()": "4ed02622",
      "getWinningsForAddress(address)": "dd64e534",
      "lastWinner()": "fe188184",
      "lastWinnerAmount()": "06f7f3bf",
      "lotteryOperator()": "5a58acdd",
      "operatorTotalCommission()": "ba946d79",
      "restartDraw()": "f2613269",
      "senderIsWinner()": "677a9e34",
      "ticketCommission()": "6032a4f9",
      "ticketPrice()": "1209b1f6",
      "tickets(uint256)": "50b44712",
      "winnings(address)": "ea3a1499",
      "withdrawCommission()": "3e25e837",
      "withdrawWinnings()": "cc42e83a"
    }
  },
  "storageLayout": {
    "storage": [
      {
        "astId": 12,
        "contract": "LuckyTickets.sol:LuckyTickets",
        "label": "expiration",
        "offset": 0,
        "slot": "0",
        "type": "t_uint256"
      },
      {
        "astId": 14,
        "contract": "LuckyTickets.sol:LuckyTickets",
        "label": "lotteryOperator",
        "offset": 0,
        "slot": "1",
        "type": "t_address"
      },
      {
        "astId": 17,
        "contract": "LuckyTickets.sol:LuckyTickets",
        "label": "operatorTotalCommission",
        "offset": 0,
        "slot": "2",
        "type": "t_uint256"
      },
      {
        "astId": 20,
        "contract": "LuckyTickets.sol:LuckyTickets",
        "label": "tickets",
        "offset": 0,
        "slot": "3",
        "type": "t_array(t_address)dyn_storage"
      },
      {
        "astId": 24,
        "contract": "LuckyTickets.sol:LuckyTickets",
        "label": "winnings",
        "offset": 0,
        "slot": "4",
        "type": "t_mapping(t_address,t_uint256)"
      },
      {
        "astId": 26,
        "contract": "LuckyTickets.sol:LuckyTickets",
        "label": "lastWinner",
        "offset": 0,
        "slot": "5",
        "type": "t_address"
      },
      {
        "astId": 28,
        "contract": "LuckyTickets.sol:LuckyTickets",
        "label": "lastWinnerAmount",
        "offset": 0,
        "slot": "6",
        "type": "t_uint256"
      }
    ],
    "types": {
      "t_address": {
        "encoding": "inplace",
        "label": "address",
        "numberOfBytes": "20"
      },
      "t_array(t_address)dyn_storage": {
        "base": "t_address",
        "encoding": "dynamic_array",
        "label": "address[]",
        "numberOfBytes": "32"
      },
      "t_mapping(t_address,t_uint256)": {
        "encoding": "mapping",
        "key": "t_address",
        "label": "mapping(address => uint256)",
        "numberOfBytes": "32",
        "value": "t_uint256"
      },
      "t_uint256": {
        "encoding": "inplace",
        "label": "uint256",
        "numberOfBytes": "32"
      }
    }
  },
  "userdoc": {
    "kind": "user",
    "methods": {},
    "version": 1
  }
}